{
  "_format": "hh-sol-artifact-1",
  "contractName": "Atomic37x",
  "sourceName": "contracts/Atomic37x.sol",
  "abi": [
    {
      "inputs": [],
      "stateMutability": "nonpayable",
      "type": "constructor"
    },
    {
      "anonymous": false,
      "inputs": [
        {
          "indexed": true,
          "internalType": "address",
          "name": "owner",
          "type": "address"
        },
        {
          "indexed": true,
          "internalType": "address",
          "name": "approved",
          "type": "address"
        },
        {
          "indexed": true,
          "internalType": "uint256",
          "name": "tokenId",
          "type": "uint256"
        }
      ],
      "name": "Approval",
      "type": "event"
    },
    {
      "anonymous": false,
      "inputs": [
        {
          "indexed": true,
          "internalType": "address",
          "name": "owner",
          "type": "address"
        },
        {
          "indexed": true,
          "internalType": "address",
          "name": "operator",
          "type": "address"
        },
        {
          "indexed": false,
          "internalType": "bool",
          "name": "approved",
          "type": "bool"
        }
      ],
      "name": "ApprovalForAll",
      "type": "event"
    },
    {
      "anonymous": false,
      "inputs": [
        {
          "indexed": true,
          "internalType": "address",
          "name": "from",
          "type": "address"
        },
        {
          "indexed": true,
          "internalType": "address",
          "name": "to",
          "type": "address"
        },
        {
          "indexed": true,
          "internalType": "uint256",
          "name": "tokenId",
          "type": "uint256"
        }
      ],
      "name": "Transfer",
      "type": "event"
    },
    {
      "inputs": [
        {
          "internalType": "address",
          "name": "to",
          "type": "address"
        },
        {
          "internalType": "uint256",
          "name": "tokenId",
          "type": "uint256"
        }
      ],
      "name": "approve",
      "outputs": [],
      "stateMutability": "nonpayable",
      "type": "function"
    },
    {
      "inputs": [
        {
          "internalType": "address",
          "name": "owner",
          "type": "address"
        }
      ],
      "name": "balanceOf",
      "outputs": [
        {
          "internalType": "uint256",
          "name": "",
          "type": "uint256"
        }
      ],
      "stateMutability": "view",
      "type": "function"
    },
    {
      "inputs": [
        {
          "internalType": "string",
          "name": "s1",
          "type": "string"
        },
        {
          "internalType": "string",
          "name": "s2",
          "type": "string"
        }
      ],
      "name": "compareStrings",
      "outputs": [
        {
          "internalType": "bool",
          "name": "",
          "type": "bool"
        }
      ],
      "stateMutability": "pure",
      "type": "function"
    },
    {
      "inputs": [],
      "name": "createItem",
      "outputs": [],
      "stateMutability": "nonpayable",
      "type": "function"
    },
    {
      "inputs": [
        {
          "internalType": "uint256",
          "name": "tokenId",
          "type": "uint256"
        }
      ],
      "name": "generateSVG",
      "outputs": [
        {
          "internalType": "string",
          "name": "",
          "type": "string"
        }
      ],
      "stateMutability": "view",
      "type": "function"
    },
    {
      "inputs": [
        {
          "internalType": "uint256",
          "name": "tokenId",
          "type": "uint256"
        }
      ],
      "name": "getApproved",
      "outputs": [
        {
          "internalType": "address",
          "name": "",
          "type": "address"
        }
      ],
      "stateMutability": "view",
      "type": "function"
    },
    {
      "inputs": [
        {
          "internalType": "uint256",
          "name": "tokenId",
          "type": "uint256"
        }
      ],
      "name": "getLevel",
      "outputs": [
        {
          "internalType": "string",
          "name": "",
          "type": "string"
        }
      ],
      "stateMutability": "view",
      "type": "function"
    },
    {
      "inputs": [
        {
          "internalType": "uint256",
          "name": "tokenId",
          "type": "uint256"
        }
      ],
      "name": "getTokenURI",
      "outputs": [
        {
          "internalType": "string",
          "name": "",
          "type": "string"
        }
      ],
      "stateMutability": "view",
      "type": "function"
    },
    {
      "inputs": [
        {
          "internalType": "uint256",
          "name": "tokenId",
          "type": "uint256"
        }
      ],
      "name": "giveUp",
      "outputs": [],
      "stateMutability": "nonpayable",
      "type": "function"
    },
    {
      "inputs": [
        {
          "internalType": "address",
          "name": "owner",
          "type": "address"
        },
        {
          "internalType": "address",
          "name": "operator",
          "type": "address"
        }
      ],
      "name": "isApprovedForAll",
      "outputs": [
        {
          "internalType": "bool",
          "name": "",
          "type": "bool"
        }
      ],
      "stateMutability": "view",
      "type": "function"
    },
    {
      "inputs": [],
      "name": "name",
      "outputs": [
        {
          "internalType": "string",
          "name": "",
          "type": "string"
        }
      ],
      "stateMutability": "view",
      "type": "function"
    },
    {
      "inputs": [
        {
          "internalType": "uint256",
          "name": "tokenId",
          "type": "uint256"
        }
      ],
      "name": "ownerOf",
      "outputs": [
        {
          "internalType": "address",
          "name": "",
          "type": "address"
        }
      ],
      "stateMutability": "view",
      "type": "function"
    },
    {
      "inputs": [
        {
          "internalType": "address",
          "name": "from",
          "type": "address"
        },
        {
          "internalType": "address",
          "name": "to",
          "type": "address"
        },
        {
          "internalType": "uint256",
          "name": "tokenId",
          "type": "uint256"
        }
      ],
      "name": "safeTransferFrom",
      "outputs": [],
      "stateMutability": "nonpayable",
      "type": "function"
    },
    {
      "inputs": [
        {
          "internalType": "address",
          "name": "from",
          "type": "address"
        },
        {
          "internalType": "address",
          "name": "to",
          "type": "address"
        },
        {
          "internalType": "uint256",
          "name": "tokenId",
          "type": "uint256"
        },
        {
          "internalType": "bytes",
          "name": "data",
          "type": "bytes"
        }
      ],
      "name": "safeTransferFrom",
      "outputs": [],
      "stateMutability": "nonpayable",
      "type": "function"
    },
    {
      "inputs": [
        {
          "internalType": "address",
          "name": "operator",
          "type": "address"
        },
        {
          "internalType": "bool",
          "name": "approved",
          "type": "bool"
        }
      ],
      "name": "setApprovalForAll",
      "outputs": [],
      "stateMutability": "nonpayable",
      "type": "function"
    },
    {
      "inputs": [
        {
          "internalType": "bytes4",
          "name": "interfaceId",
          "type": "bytes4"
        }
      ],
      "name": "supportsInterface",
      "outputs": [
        {
          "internalType": "bool",
          "name": "",
          "type": "bool"
        }
      ],
      "stateMutability": "view",
      "type": "function"
    },
    {
      "inputs": [],
      "name": "symbol",
      "outputs": [
        {
          "internalType": "string",
          "name": "",
          "type": "string"
        }
      ],
      "stateMutability": "view",
      "type": "function"
    },
    {
      "inputs": [
        {
          "internalType": "uint256",
          "name": "",
          "type": "uint256"
        }
      ],
      "name": "tokenIdToLevels",
      "outputs": [
        {
          "internalType": "uint256",
          "name": "",
          "type": "uint256"
        }
      ],
      "stateMutability": "view",
      "type": "function"
    },
    {
      "inputs": [
        {
          "internalType": "uint256",
          "name": "tokenId",
          "type": "uint256"
        }
      ],
      "name": "tokenURI",
      "outputs": [
        {
          "internalType": "string",
          "name": "",
          "type": "string"
        }
      ],
      "stateMutability": "view",
      "type": "function"
    },
    {
      "inputs": [
        {
          "internalType": "uint256",
          "name": "tokenId",
          "type": "uint256"
        }
      ],
      "name": "train",
      "outputs": [],
      "stateMutability": "nonpayable",
      "type": "function"
    },
    {
      "inputs": [
        {
          "internalType": "address",
          "name": "from",
          "type": "address"
        },
        {
          "internalType": "address",
          "name": "to",
          "type": "address"
        },
        {
          "internalType": "uint256",
          "name": "tokenId",
          "type": "uint256"
        }
      ],
      "name": "transferFrom",
      "outputs": [],
      "stateMutability": "nonpayable",
      "type": "function"
    }
  ],
  "bytecode": "0x60806040523480156200001157600080fd5b506040518060400160405280601081526020017f41746f6d696320486162697420333778000000000000000000000000000000008152506040518060400160405280600581526020017f414833377800000000000000000000000000000000000000000000000000000081525081600090816200008f919062000324565b508060019081620000a1919062000324565b5050506200040b565b600081519050919050565b7f4e487b7100000000000000000000000000000000000000000000000000000000600052604160045260246000fd5b7f4e487b7100000000000000000000000000000000000000000000000000000000600052602260045260246000fd5b600060028204905060018216806200012c57607f821691505b602082108103620001425762000141620000e4565b5b50919050565b60008190508160005260206000209050919050565b60006020601f8301049050919050565b600082821b905092915050565b600060088302620001ac7fffffffffffffffffffffffffffffffffffffffffffffffffffffffffffffffff826200016d565b620001b886836200016d565b95508019841693508086168417925050509392505050565b6000819050919050565b6000819050919050565b600062000205620001ff620001f984620001d0565b620001da565b620001d0565b9050919050565b6000819050919050565b6200022183620001e4565b6200023962000230826200020c565b8484546200017a565b825550505050565b600090565b6200025062000241565b6200025d81848462000216565b505050565b5b8181101562000285576200027960008262000246565b60018101905062000263565b5050565b601f821115620002d4576200029e8162000148565b620002a9846200015d565b81016020851015620002b9578190505b620002d1620002c8856200015d565b83018262000262565b50505b505050565b600082821c905092915050565b6000620002f960001984600802620002d9565b1980831691505092915050565b6000620003148383620002e6565b9150826002028217905092915050565b6200032f82620000aa565b67ffffffffffffffff8111156200034b576200034a620000b5565b5b62000357825462000113565b6200036482828562000289565b600060209050601f8311600181146200039c576000841562000387578287015190505b62000393858262000306565b86555062000403565b601f198416620003ac8662000148565b60005b82811015620003d657848901518255600182019150602085019450602081019050620003af565b86831015620003f65784890151620003f2601f891682620002e6565b8355505b6001600288020188555050505b505050505050565b613fce806200041b6000396000f3fe608060405234801561001057600080fd5b50600436106101375760003560e01c80636dcee4ca116100b8578063b88d4fde1161007c578063b88d4fde14610370578063bed34bba1461038c578063c6a4342f146103bc578063c87b56dd146103ec578063cbaf1c7f1461041c578063e985e9c51461042657610137565b80636dcee4ca146102a657806370a08231146102d657806386481d401461030657806395d89b4114610336578063a22cb4651461035457610137565b806323b872dd116100ff57806323b872dd146101f2578063368004ed1461020e5780633bb3a24d1461022a57806342842e0e1461025a5780636352211e1461027657610137565b806301ffc9a71461013c57806306fdde031461016c578063081812fc1461018a578063095ea7b3146101ba57806322671fe9146101d6575b600080fd5b610156600480360381019061015191906122a9565b610456565b60405161016391906122f1565b60405180910390f35b610174610538565b604051610181919061239c565b60405180910390f35b6101a4600480360381019061019f91906123f4565b6105ca565b6040516101b19190612462565b60405180910390f35b6101d460048036038101906101cf91906124a9565b610610565b005b6101f060048036038101906101eb91906123f4565b610727565b005b61020c600480360381019061020791906124e9565b61085d565b005b610228600480360381019061022391906123f4565b6108bd565b005b610244600480360381019061023f91906123f4565b610a49565b604051610251919061239c565b60405180910390f35b610274600480360381019061026f91906124e9565b610ab1565b005b610290600480360381019061028b91906123f4565b610ad1565b60405161029d9190612462565b60405180910390f35b6102c060048036038101906102bb91906123f4565b610b57565b6040516102cd919061239c565b60405180910390f35b6102f060048036038101906102eb919061253c565b610bb5565b6040516102fd9190612578565b60405180910390f35b610320600480360381019061031b91906123f4565b610c6c565b60405161032d919061239c565b60405180910390f35b61033e610c97565b60405161034b919061239c565b60405180910390f35b61036e600480360381019061036991906125bf565b610d29565b005b61038a60048036038101906103859190612734565b610d3f565b005b6103a660048036038101906103a19190612858565b610da1565b6040516103b391906122f1565b60405180910390f35b6103d660048036038101906103d191906123f4565b610dbc565b6040516103e39190612578565b60405180910390f35b610406600480360381019061040191906123f4565b610dd4565b604051610413919061239c565b60405180910390f35b610424610ee6565b005b610440600480360381019061043b91906128d0565b610f81565b60405161044d91906122f1565b60405180910390f35b60007f80ac58cd000000000000000000000000000000000000000000000000000000007bffffffffffffffffffffffffffffffffffffffffffffffffffffffff1916827bffffffffffffffffffffffffffffffffffffffffffffffffffffffff1916148061052157507f5b5e139f000000000000000000000000000000000000000000000000000000007bffffffffffffffffffffffffffffffffffffffffffffffffffffffff1916827bffffffffffffffffffffffffffffffffffffffffffffffffffffffff1916145b80610531575061053082611015565b5b9050919050565b6060600080546105479061293f565b80601f01602080910402602001604051908101604052809291908181526020018280546105739061293f565b80156105c05780601f10610595576101008083540402835291602001916105c0565b820191906000526020600020905b8154815290600101906020018083116105a357829003601f168201915b5050505050905090565b60006105d58261107f565b6004600083815260200190815260200160002060009054906101000a900473ffffffffffffffffffffffffffffffffffffffff169050919050565b600061061b82610ad1565b90508073ffffffffffffffffffffffffffffffffffffffff168373ffffffffffffffffffffffffffffffffffffffff160361068b576040517f08c379a0000000000000000000000000000000000000000000000000000000008152600401610682906129e2565b60405180910390fd5b8073ffffffffffffffffffffffffffffffffffffffff166106aa6110ca565b73ffffffffffffffffffffffffffffffffffffffff1614806106d957506106d8816106d36110ca565b610f81565b5b610718576040517f08c379a000000000000000000000000000000000000000000000000000000000815260040161070f90612a74565b60405180910390fd5b61072283836110d2565b505050565b3373ffffffffffffffffffffffffffffffffffffffff1661074782610ad1565b73ffffffffffffffffffffffffffffffffffffffff161461079d576040517f08c379a000000000000000000000000000000000000000000000000000000000815260040161079490612ae0565b60405180910390fd5b6107e46107a982610c6c565b6040518060400160405280600181526020017f3000000000000000000000000000000000000000000000000000000000000000815250610da1565b610823576040517f08c379a000000000000000000000000000000000000000000000000000000000815260040161081a90612b4c565b60405180910390fd5b61082c8161118b565b6008600082815260200190815260200160002060009055600960008281526020019081526020016000206000905550565b61086e6108686110ca565b826111de565b6108ad576040517f08c379a00000000000000000000000000000000000000000000000000000000081526004016108a490612bde565b60405180910390fd5b6108b8838383611273565b505050565b6108c68161156c565b610905576040517f08c379a00000000000000000000000000000000000000000000000000000000081526004016108fc90612c4a565b60405180910390fd5b3373ffffffffffffffffffffffffffffffffffffffff1661092582610ad1565b73ffffffffffffffffffffffffffffffffffffffff161461097b576040517f08c379a000000000000000000000000000000000000000000000000000000000815260040161097290612cb6565b60405180910390fd5b4262015180600960008481526020019081526020016000205461099e9190612d05565b11156109df576040517f08c379a00000000000000000000000000000000000000000000000000000000081526004016109d690612dab565b60405180910390fd5b600060086000838152602001908152602001600020549050426009600084815260200190815260200160002081905550600181610a1c9190612d05565b6008600084815260200190815260200160002081905550610a4582610a4084610a49565b6115ad565b5050565b60606000610a568361161a565b610a5f84610b57565b604051602001610a70929190613041565b6040516020818303038152906040529050610a8a816116e8565b604051602001610a9a91906130fe565b604051602081830303815290604052915050919050565b610acc83838360405180602001604052806000815250610d3f565b505050565b600080610add8361184b565b9050600073ffffffffffffffffffffffffffffffffffffffff168173ffffffffffffffffffffffffffffffffffffffff1603610b4e576040517f08c379a0000000000000000000000000000000000000000000000000000000008152600401610b459061316c565b60405180910390fd5b80915050919050565b60606000610b6483610c6c565b604051602001610b7491906135b4565b6040516020818303038152906040529050610b8e816116e8565b604051602001610b9e9190613685565b604051602081830303815290604052915050919050565b60008073ffffffffffffffffffffffffffffffffffffffff168273ffffffffffffffffffffffffffffffffffffffff1603610c25576040517f08c379a0000000000000000000000000000000000000000000000000000000008152600401610c1c90613719565b60405180910390fd5b600360008373ffffffffffffffffffffffffffffffffffffffff1673ffffffffffffffffffffffffffffffffffffffff168152602001908152602001600020549050919050565b6060600060086000848152602001908152602001600020549050610c8f8161161a565b915050919050565b606060018054610ca69061293f565b80601f0160208091040260200160405190810160405280929190818152602001828054610cd29061293f565b8015610d1f5780601f10610cf457610100808354040283529160200191610d1f565b820191906000526020600020905b815481529060010190602001808311610d0257829003601f168201915b5050505050905090565b610d3b610d346110ca565b8383611888565b5050565b610d50610d4a6110ca565b836111de565b610d8f576040517f08c379a0000000000000000000000000000000000000000000000000000000008152600401610d8690612bde565b60405180910390fd5b610d9b848484846119f4565b50505050565b60008180519060200120838051906020012014905092915050565b60086020528060005260406000206000915090505481565b6060610ddf8261107f565b6000600660008481526020019081526020016000208054610dff9061293f565b80601f0160208091040260200160405190810160405280929190818152602001828054610e2b9061293f565b8015610e785780601f10610e4d57610100808354040283529160200191610e78565b820191906000526020600020905b815481529060010190602001808311610e5b57829003601f168201915b505050505090506000610e89611a50565b90506000815103610e9e578192505050610ee1565b600082511115610ed3578082604051602001610ebb929190613739565b60405160208183030381529060405292505050610ee1565b610edc84611a67565b925050505b919050565b6000610ef133610bb5565b14610f31576040517f08c379a0000000000000000000000000000000000000000000000000000000008152600401610f28906137a9565b60405180910390fd5b610f3b6007611acf565b6000610f476007611ae5565b905060006008600083815260200190815260200160002081905550610f6c3382611af3565b610f7e81610f7983610a49565b6115ad565b50565b6000600560008473ffffffffffffffffffffffffffffffffffffffff1673ffffffffffffffffffffffffffffffffffffffff16815260200190815260200160002060008373ffffffffffffffffffffffffffffffffffffffff1673ffffffffffffffffffffffffffffffffffffffff16815260200190815260200160002060009054906101000a900460ff16905092915050565b60007f01ffc9a7000000000000000000000000000000000000000000000000000000007bffffffffffffffffffffffffffffffffffffffffffffffffffffffff1916827bffffffffffffffffffffffffffffffffffffffffffffffffffffffff1916149050919050565b6110888161156c565b6110c7576040517f08c379a00000000000000000000000000000000000000000000000000000000081526004016110be9061316c565b60405180910390fd5b50565b600033905090565b816004600083815260200190815260200160002060006101000a81548173ffffffffffffffffffffffffffffffffffffffff021916908373ffffffffffffffffffffffffffffffffffffffff160217905550808273ffffffffffffffffffffffffffffffffffffffff1661114583610ad1565b73ffffffffffffffffffffffffffffffffffffffff167f8c5be1e5ebec7d5bd14f71427d1e84f3dd0314c0f7b2291e5b200ac8c7c3b92560405160405180910390a45050565b61119481611b11565b60006006600083815260200190815260200160002080546111b49061293f565b9050146111db576006600082815260200190815260200160002060006111da91906121e0565b5b50565b6000806111ea83610ad1565b90508073ffffffffffffffffffffffffffffffffffffffff168473ffffffffffffffffffffffffffffffffffffffff16148061122c575061122b8185610f81565b5b8061126a57508373ffffffffffffffffffffffffffffffffffffffff16611252846105ca565b73ffffffffffffffffffffffffffffffffffffffff16145b91505092915050565b8273ffffffffffffffffffffffffffffffffffffffff1661129382610ad1565b73ffffffffffffffffffffffffffffffffffffffff16146112e9576040517f08c379a00000000000000000000000000000000000000000000000000000000081526004016112e09061383b565b60405180910390fd5b600073ffffffffffffffffffffffffffffffffffffffff168273ffffffffffffffffffffffffffffffffffffffff1603611358576040517f08c379a000000000000000000000000000000000000000000000000000000000815260040161134f906138cd565b60405180910390fd5b6113658383836001611c5f565b8273ffffffffffffffffffffffffffffffffffffffff1661138582610ad1565b73ffffffffffffffffffffffffffffffffffffffff16146113db576040517f08c379a00000000000000000000000000000000000000000000000000000000081526004016113d29061383b565b60405180910390fd5b6004600082815260200190815260200160002060006101000a81549073ffffffffffffffffffffffffffffffffffffffff02191690556001600360008573ffffffffffffffffffffffffffffffffffffffff1673ffffffffffffffffffffffffffffffffffffffff168152602001908152602001600020600082825403925050819055506001600360008473ffffffffffffffffffffffffffffffffffffffff1673ffffffffffffffffffffffffffffffffffffffff16815260200190815260200160002060008282540192505081905550816002600083815260200190815260200160002060006101000a81548173ffffffffffffffffffffffffffffffffffffffff021916908373ffffffffffffffffffffffffffffffffffffffff160217905550808273ffffffffffffffffffffffffffffffffffffffff168473ffffffffffffffffffffffffffffffffffffffff167fddf252ad1be2c89b69c2b068fc378daa952ba7f163c4a11628f55a4df523b3ef60405160405180910390a46115678383836001611c65565b505050565b60008073ffffffffffffffffffffffffffffffffffffffff1661158e8361184b565b73ffffffffffffffffffffffffffffffffffffffff1614159050919050565b6115b68261156c565b6115f5576040517f08c379a00000000000000000000000000000000000000000000000000000000081526004016115ec9061395f565b60405180910390fd5b806006600084815260200190815260200160002090816116159190613b2b565b505050565b60606000600161162984611c6b565b01905060008167ffffffffffffffff81111561164857611647612609565b5b6040519080825280601f01601f19166020018201604052801561167a5781602001600182028036833780820191505090505b509050600082602001820190505b6001156116dd578080600190039150507f3031323334353637383961626364656600000000000000000000000000000000600a86061a8153600a85816116d1576116d0613bfd565b5b04945060008503611688575b819350505050919050565b6060600082510361170a57604051806020016040528060008152509050611846565b6000604051806060016040528060408152602001613f5960409139905060006003600285516117399190612d05565b6117439190613c2c565b600461174f9190613c5d565b67ffffffffffffffff81111561176857611767612609565b5b6040519080825280601f01601f19166020018201604052801561179a5781602001600182028036833780820191505090505b509050600182016020820185865187015b80821015611806576003820191508151603f8160121c168501518453600184019350603f81600c1c168501518453600184019350603f8160061c168501518453600184019350603f81168501518453600184019350506117ab565b505060038651066001811461182257600281146118355761183d565b603d6001830353603d600283035361183d565b603d60018303535b50505080925050505b919050565b60006002600083815260200190815260200160002060009054906101000a900473ffffffffffffffffffffffffffffffffffffffff169050919050565b8173ffffffffffffffffffffffffffffffffffffffff168373ffffffffffffffffffffffffffffffffffffffff16036118f6576040517f08c379a00000000000000000000000000000000000000000000000000000000081526004016118ed90613ceb565b60405180910390fd5b80600560008573ffffffffffffffffffffffffffffffffffffffff1673ffffffffffffffffffffffffffffffffffffffff16815260200190815260200160002060008473ffffffffffffffffffffffffffffffffffffffff1673ffffffffffffffffffffffffffffffffffffffff16815260200190815260200160002060006101000a81548160ff0219169083151502179055508173ffffffffffffffffffffffffffffffffffffffff168373ffffffffffffffffffffffffffffffffffffffff167f17307eab39ab6107e8899845ad3d59bd9653f200f220920489ca2b5937696c31836040516119e791906122f1565b60405180910390a3505050565b6119ff848484611273565b611a0b84848484611dbe565b611a4a576040517f08c379a0000000000000000000000000000000000000000000000000000000008152600401611a4190613d7d565b60405180910390fd5b50505050565b606060405180602001604052806000815250905090565b6060611a728261107f565b6000611a7c611a50565b90506000815111611a9c5760405180602001604052806000815250611ac7565b80611aa68461161a565b604051602001611ab7929190613739565b6040516020818303038152906040525b915050919050565b6001816000016000828254019250508190555050565b600081600001549050919050565b611b0d828260405180602001604052806000815250611f45565b5050565b6000611b1c82610ad1565b9050611b2c816000846001611c5f565b611b3582610ad1565b90506004600083815260200190815260200160002060006101000a81549073ffffffffffffffffffffffffffffffffffffffff02191690556001600360008373ffffffffffffffffffffffffffffffffffffffff1673ffffffffffffffffffffffffffffffffffffffff168152602001908152602001600020600082825403925050819055506002600083815260200190815260200160002060006101000a81549073ffffffffffffffffffffffffffffffffffffffff021916905581600073ffffffffffffffffffffffffffffffffffffffff168273ffffffffffffffffffffffffffffffffffffffff167fddf252ad1be2c89b69c2b068fc378daa952ba7f163c4a11628f55a4df523b3ef60405160405180910390a4611c5b816000846001611c65565b5050565b50505050565b50505050565b600080600090507a184f03e93ff9f4daa797ed6e38ed64bf6a1f0100000000000000008310611cc9577a184f03e93ff9f4daa797ed6e38ed64bf6a1f0100000000000000008381611cbf57611cbe613bfd565b5b0492506040810190505b6d04ee2d6d415b85acef81000000008310611d06576d04ee2d6d415b85acef81000000008381611cfc57611cfb613bfd565b5b0492506020810190505b662386f26fc100008310611d3557662386f26fc100008381611d2b57611d2a613bfd565b5b0492506010810190505b6305f5e1008310611d5e576305f5e1008381611d5457611d53613bfd565b5b0492506008810190505b6127108310611d83576127108381611d7957611d78613bfd565b5b0492506004810190505b60648310611da65760648381611d9c57611d9b613bfd565b5b0492506002810190505b600a8310611db5576001810190505b80915050919050565b6000611ddf8473ffffffffffffffffffffffffffffffffffffffff16611fa0565b15611f38578373ffffffffffffffffffffffffffffffffffffffff1663150b7a02611e086110ca565b8786866040518563ffffffff1660e01b8152600401611e2a9493929190613df2565b6020604051808303816000875af1925050508015611e6657506040513d601f19601f82011682018060405250810190611e639190613e53565b60015b611ee8573d8060008114611e96576040519150601f19603f3d011682016040523d82523d6000602084013e611e9b565b606091505b506000815103611ee0576040517f08c379a0000000000000000000000000000000000000000000000000000000008152600401611ed790613d7d565b60405180910390fd5b805181602001fd5b63150b7a0260e01b7bffffffffffffffffffffffffffffffffffffffffffffffffffffffff1916817bffffffffffffffffffffffffffffffffffffffffffffffffffffffff191614915050611f3d565b600190505b949350505050565b611f4f8383611fc3565b611f5c6000848484611dbe565b611f9b576040517f08c379a0000000000000000000000000000000000000000000000000000000008152600401611f9290613d7d565b60405180910390fd5b505050565b6000808273ffffffffffffffffffffffffffffffffffffffff163b119050919050565b600073ffffffffffffffffffffffffffffffffffffffff168273ffffffffffffffffffffffffffffffffffffffff1603612032576040517f08c379a000000000000000000000000000000000000000000000000000000000815260040161202990613ecc565b60405180910390fd5b61203b8161156c565b1561207b576040517f08c379a000000000000000000000000000000000000000000000000000000000815260040161207290613f38565b60405180910390fd5b612089600083836001611c5f565b6120928161156c565b156120d2576040517f08c379a00000000000000000000000000000000000000000000000000000000081526004016120c990613f38565b60405180910390fd5b6001600360008473ffffffffffffffffffffffffffffffffffffffff1673ffffffffffffffffffffffffffffffffffffffff16815260200190815260200160002060008282540192505081905550816002600083815260200190815260200160002060006101000a81548173ffffffffffffffffffffffffffffffffffffffff021916908373ffffffffffffffffffffffffffffffffffffffff160217905550808273ffffffffffffffffffffffffffffffffffffffff16600073ffffffffffffffffffffffffffffffffffffffff167fddf252ad1be2c89b69c2b068fc378daa952ba7f163c4a11628f55a4df523b3ef60405160405180910390a46121dc600083836001611c65565b5050565b5080546121ec9061293f565b6000825580601f106121fe575061221d565b601f01602090049060005260206000209081019061221c9190612220565b5b50565b5b80821115612239576000816000905550600101612221565b5090565b6000604051905090565b600080fd5b600080fd5b60007fffffffff0000000000000000000000000000000000000000000000000000000082169050919050565b61228681612251565b811461229157600080fd5b50565b6000813590506122a38161227d565b92915050565b6000602082840312156122bf576122be612247565b5b60006122cd84828501612294565b91505092915050565b60008115159050919050565b6122eb816122d6565b82525050565b600060208201905061230660008301846122e2565b92915050565b600081519050919050565b600082825260208201905092915050565b60005b8381101561234657808201518184015260208101905061232b565b60008484015250505050565b6000601f19601f8301169050919050565b600061236e8261230c565b6123788185612317565b9350612388818560208601612328565b61239181612352565b840191505092915050565b600060208201905081810360008301526123b68184612363565b905092915050565b6000819050919050565b6123d1816123be565b81146123dc57600080fd5b50565b6000813590506123ee816123c8565b92915050565b60006020828403121561240a57612409612247565b5b6000612418848285016123df565b91505092915050565b600073ffffffffffffffffffffffffffffffffffffffff82169050919050565b600061244c82612421565b9050919050565b61245c81612441565b82525050565b60006020820190506124776000830184612453565b92915050565b61248681612441565b811461249157600080fd5b50565b6000813590506124a38161247d565b92915050565b600080604083850312156124c0576124bf612247565b5b60006124ce85828601612494565b92505060206124df858286016123df565b9150509250929050565b60008060006060848603121561250257612501612247565b5b600061251086828701612494565b935050602061252186828701612494565b9250506040612532868287016123df565b9150509250925092565b60006020828403121561255257612551612247565b5b600061256084828501612494565b91505092915050565b612572816123be565b82525050565b600060208201905061258d6000830184612569565b92915050565b61259c816122d6565b81146125a757600080fd5b50565b6000813590506125b981612593565b92915050565b600080604083850312156125d6576125d5612247565b5b60006125e485828601612494565b92505060206125f5858286016125aa565b9150509250929050565b600080fd5b600080fd5b7f4e487b7100000000000000000000000000000000000000000000000000000000600052604160045260246000fd5b61264182612352565b810181811067ffffffffffffffff821117156126605761265f612609565b5b80604052505050565b600061267361223d565b905061267f8282612638565b919050565b600067ffffffffffffffff82111561269f5761269e612609565b5b6126a882612352565b9050602081019050919050565b82818337600083830152505050565b60006126d76126d284612684565b612669565b9050828152602081018484840111156126f3576126f2612604565b5b6126fe8482856126b5565b509392505050565b600082601f83011261271b5761271a6125ff565b5b813561272b8482602086016126c4565b91505092915050565b6000806000806080858703121561274e5761274d612247565b5b600061275c87828801612494565b945050602061276d87828801612494565b935050604061277e878288016123df565b925050606085013567ffffffffffffffff81111561279f5761279e61224c565b5b6127ab87828801612706565b91505092959194509250565b600067ffffffffffffffff8211156127d2576127d1612609565b5b6127db82612352565b9050602081019050919050565b60006127fb6127f6846127b7565b612669565b90508281526020810184848401111561281757612816612604565b5b6128228482856126b5565b509392505050565b600082601f83011261283f5761283e6125ff565b5b813561284f8482602086016127e8565b91505092915050565b6000806040838503121561286f5761286e612247565b5b600083013567ffffffffffffffff81111561288d5761288c61224c565b5b6128998582860161282a565b925050602083013567ffffffffffffffff8111156128ba576128b961224c565b5b6128c68582860161282a565b9150509250929050565b600080604083850312156128e7576128e6612247565b5b60006128f585828601612494565b925050602061290685828601612494565b9150509250929050565b7f4e487b7100000000000000000000000000000000000000000000000000000000600052602260045260246000fd5b6000600282049050600182168061295757607f821691505b60208210810361296a57612969612910565b5b50919050565b7f4552433732313a20617070726f76616c20746f2063757272656e74206f776e6560008201527f7200000000000000000000000000000000000000000000000000000000000000602082015250565b60006129cc602183612317565b91506129d782612970565b604082019050919050565b600060208201905081810360008301526129fb816129bf565b9050919050565b7f4552433732313a20617070726f76652063616c6c6572206973206e6f7420746f60008201527f6b656e206f776e6572206f7220617070726f76656420666f7220616c6c000000602082015250565b6000612a5e603d83612317565b9150612a6982612a02565b604082019050919050565b60006020820190508181036000830152612a8d81612a51565b9050919050565b7f4f6e6c79206f776e65722063616e206769766520757000000000000000000000600082015250565b6000612aca601683612317565b9150612ad582612a94565b602082019050919050565b60006020820190508181036000830152612af981612abd565b9050919050565b7f53686f756c64206e6f742067697665207570206265666f726520737461727400600082015250565b6000612b36601f83612317565b9150612b4182612b00565b602082019050919050565b60006020820190508181036000830152612b6581612b29565b9050919050565b7f4552433732313a2063616c6c6572206973206e6f7420746f6b656e206f776e6560008201527f72206f7220617070726f76656400000000000000000000000000000000000000602082015250565b6000612bc8602d83612317565b9150612bd382612b6c565b604082019050919050565b60006020820190508181036000830152612bf781612bbb565b9050919050565b7f546f6b656e20646f6573206e6f74206578697374000000000000000000000000600082015250565b6000612c34601483612317565b9150612c3f82612bfe565b602082019050919050565b60006020820190508181036000830152612c6381612c27565b9050919050565b7f4f6e6c79206f776e65722063616e20747261696e000000000000000000000000600082015250565b6000612ca0601483612317565b9150612cab82612c6a565b602082019050919050565b60006020820190508181036000830152612ccf81612c93565b9050919050565b7f4e487b7100000000000000000000000000000000000000000000000000000000600052601160045260246000fd5b6000612d10826123be565b9150612d1b836123be565b9250828201905080821115612d3357612d32612cd6565b5b92915050565b7f546f6b656e2063616e206f6e6c7920626520747261696e6564206f6e6365206560008201527f7665727920323420686f75727300000000000000000000000000000000000000602082015250565b6000612d95602d83612317565b9150612da082612d39565b604082019050919050565b60006020820190508181036000830152612dc481612d88565b9050919050565b600081905092915050565b7f7b00000000000000000000000000000000000000000000000000000000000000600082015250565b6000612e0c600183612dcb565b9150612e1782612dd6565b600182019050919050565b7f226e616d65223a202241746f6d69632048616269742023000000000000000000600082015250565b6000612e58601783612dcb565b9150612e6382612e22565b601782019050919050565b6000612e798261230c565b612e838185612dcb565b9350612e93818560208601612328565b80840191505092915050565b7f222c000000000000000000000000000000000000000000000000000000000000600082015250565b6000612ed5600283612dcb565b9150612ee082612e9f565b600282019050919050565b7f226465736372697074696f6e223a20224275696c6420796f75722061746f6d6960008201527f63206861626974206f6e20636861696e222c0000000000000000000000000000602082015250565b6000612f47603283612dcb565b9150612f5282612eeb565b603282019050919050565b7f22696d616765223a202200000000000000000000000000000000000000000000600082015250565b6000612f93600a83612dcb565b9150612f9e82612f5d565b600a82019050919050565b7f2200000000000000000000000000000000000000000000000000000000000000600082015250565b6000612fdf600183612dcb565b9150612fea82612fa9565b600182019050919050565b7f7d00000000000000000000000000000000000000000000000000000000000000600082015250565b600061302b600183612dcb565b915061303682612ff5565b600182019050919050565b600061304c82612dff565b915061305782612e4b565b91506130638285612e6e565b915061306e82612ec8565b915061307982612f3a565b915061308482612f86565b91506130908284612e6e565b915061309b82612fd2565b91506130a68261301e565b91508190509392505050565b7f646174613a6170706c69636174696f6e2f6a736f6e3b6261736536342c000000600082015250565b60006130e8601d83612dcb565b91506130f3826130b2565b601d82019050919050565b6000613109826130db565b91506131158284612e6e565b915081905092915050565b7f4552433732313a20696e76616c696420746f6b656e2049440000000000000000600082015250565b6000613156601883612317565b915061316182613120565b602082019050919050565b6000602082019050818103600083015261318581613149565b9050919050565b7f3c73766720786d6c6e733d22687474703a2f2f7777772e77332e6f72672f323060008201527f30302f73766722207072657365727665417370656374526174696f3d22784d6960208201527f6e594d696e206d656574222076696577426f783d22302030203335302033353060408201527f223e000000000000000000000000000000000000000000000000000000000000606082015250565b6000613234606283612dcb565b915061323f8261318c565b606282019050919050565b7f3c7374796c653e2e62617365207b2066696c6c3a2077686974653b20666f6e7460008201527f2d66616d696c793a2073657269663b20666f6e742d73697a653a20313470783b60208201527f207d3c2f7374796c653e00000000000000000000000000000000000000000000604082015250565b60006132cc604a83612dcb565b91506132d78261324a565b604a82019050919050565b7f3c726563742077696474683d223130302522206865696768743d22313030252260008201527f2066696c6c3d22626c61636b22202f3e00000000000000000000000000000000602082015250565b600061333e603083612dcb565b9150613349826132e2565b603082019050919050565b7f3c7465787420783d223530252220793d223430252220636c6173733d2262617360008201527f652220646f6d696e616e742d626173656c696e653d226d6964646c652220746560208201527f78742d616e63686f723d226d6964646c65223e00000000000000000000000000604082015250565b60006133d6605383612dcb565b91506133e182613354565b605382019050919050565b7f41746f6d69632033377800000000000000000000000000000000000000000000600082015250565b6000613422600a83612dcb565b915061342d826133ec565b600a82019050919050565b7f3c2f746578743e00000000000000000000000000000000000000000000000000600082015250565b600061346e600783612dcb565b915061347982613438565b600782019050919050565b7f3c7465787420783d223530252220793d223530252220636c6173733d2262617360008201527f652220646f6d696e616e742d626173656c696e653d226d6964646c652220746560208201527f78742d616e63686f723d226d6964646c65223e00000000000000000000000000604082015250565b6000613506605383612dcb565b915061351182613484565b605382019050919050565b7f4c6576656c733a20000000000000000000000000000000000000000000000000600082015250565b6000613552600883612dcb565b915061355d8261351c565b600882019050919050565b7f3c2f7376673e0000000000000000000000000000000000000000000000000000600082015250565b600061359e600683612dcb565b91506135a982613568565b600682019050919050565b60006135bf82613227565b91506135ca826132bf565b91506135d582613331565b91506135e0826133c9565b91506135eb82613415565b91506135f682613461565b9150613601826134f9565b915061360c82613545565b91506136188284612e6e565b915061362382613461565b915061362e82613591565b915081905092915050565b7f646174613a696d6167652f7376672b786d6c3b6261736536342c000000000000600082015250565b600061366f601a83612dcb565b915061367a82613639565b601a82019050919050565b600061369082613662565b915061369c8284612e6e565b915081905092915050565b7f4552433732313a2061646472657373207a65726f206973206e6f74206120766160008201527f6c6964206f776e65720000000000000000000000000000000000000000000000602082015250565b6000613703602983612317565b915061370e826136a7565b604082019050919050565b60006020820190508181036000830152613732816136f6565b9050919050565b60006137458285612e6e565b91506137518284612e6e565b91508190509392505050565b7f4f6e6c7920666f637573206f6e206f6e6520676f616c20617420612074696d65600082015250565b6000613793602083612317565b915061379e8261375d565b602082019050919050565b600060208201905081810360008301526137c281613786565b9050919050565b7f4552433732313a207472616e736665722066726f6d20696e636f72726563742060008201527f6f776e6572000000000000000000000000000000000000000000000000000000602082015250565b6000613825602583612317565b9150613830826137c9565b604082019050919050565b6000602082019050818103600083015261385481613818565b9050919050565b7f4552433732313a207472616e7366657220746f20746865207a65726f2061646460008201527f7265737300000000000000000000000000000000000000000000000000000000602082015250565b60006138b7602483612317565b91506138c28261385b565b604082019050919050565b600060208201905081810360008301526138e6816138aa565b9050919050565b7f45524337323155524953746f726167653a2055524920736574206f66206e6f6e60008201527f6578697374656e7420746f6b656e000000000000000000000000000000000000602082015250565b6000613949602e83612317565b9150613954826138ed565b604082019050919050565b600060208201905081810360008301526139788161393c565b9050919050565b60008190508160005260206000209050919050565b60006020601f8301049050919050565b600082821b905092915050565b6000600883026139e17fffffffffffffffffffffffffffffffffffffffffffffffffffffffffffffffff826139a4565b6139eb86836139a4565b95508019841693508086168417925050509392505050565b6000819050919050565b6000613a28613a23613a1e846123be565b613a03565b6123be565b9050919050565b6000819050919050565b613a4283613a0d565b613a56613a4e82613a2f565b8484546139b1565b825550505050565b600090565b613a6b613a5e565b613a76818484613a39565b505050565b5b81811015613a9a57613a8f600082613a63565b600181019050613a7c565b5050565b601f821115613adf57613ab08161397f565b613ab984613994565b81016020851015613ac8578190505b613adc613ad485613994565b830182613a7b565b50505b505050565b600082821c905092915050565b6000613b0260001984600802613ae4565b1980831691505092915050565b6000613b1b8383613af1565b9150826002028217905092915050565b613b348261230c565b67ffffffffffffffff811115613b4d57613b4c612609565b5b613b57825461293f565b613b62828285613a9e565b600060209050601f831160018114613b955760008415613b83578287015190505b613b8d8582613b0f565b865550613bf5565b601f198416613ba38661397f565b60005b82811015613bcb57848901518255600182019150602085019450602081019050613ba6565b86831015613be85784890151613be4601f891682613af1565b8355505b6001600288020188555050505b505050505050565b7f4e487b7100000000000000000000000000000000000000000000000000000000600052601260045260246000fd5b6000613c37826123be565b9150613c42836123be565b925082613c5257613c51613bfd565b5b828204905092915050565b6000613c68826123be565b9150613c73836123be565b9250828202613c81816123be565b91508282048414831517613c9857613c97612cd6565b5b5092915050565b7f4552433732313a20617070726f766520746f2063616c6c657200000000000000600082015250565b6000613cd5601983612317565b9150613ce082613c9f565b602082019050919050565b60006020820190508181036000830152613d0481613cc8565b9050919050565b7f4552433732313a207472616e7366657220746f206e6f6e20455243373231526560008201527f63656976657220696d706c656d656e7465720000000000000000000000000000602082015250565b6000613d67603283612317565b9150613d7282613d0b565b604082019050919050565b60006020820190508181036000830152613d9681613d5a565b9050919050565b600081519050919050565b600082825260208201905092915050565b6000613dc482613d9d565b613dce8185613da8565b9350613dde818560208601612328565b613de781612352565b840191505092915050565b6000608082019050613e076000830187612453565b613e146020830186612453565b613e216040830185612569565b8181036060830152613e338184613db9565b905095945050505050565b600081519050613e4d8161227d565b92915050565b600060208284031215613e6957613e68612247565b5b6000613e7784828501613e3e565b91505092915050565b7f4552433732313a206d696e7420746f20746865207a65726f2061646472657373600082015250565b6000613eb6602083612317565b9150613ec182613e80565b602082019050919050565b60006020820190508181036000830152613ee581613ea9565b9050919050565b7f4552433732313a20746f6b656e20616c7265616479206d696e74656400000000600082015250565b6000613f22601c83612317565b9150613f2d82613eec565b602082019050919050565b60006020820190508181036000830152613f5181613f15565b905091905056fe4142434445464748494a4b4c4d4e4f505152535455565758595a6162636465666768696a6b6c6d6e6f707172737475767778797a303132333435363738392b2fa2646970667358221220e3c536452f4895b19d45fbcaef8f0c750e1e76b9e424ede8b9523669e7637bcf64736f6c63430008110033",
  "linkReferences": {},
  "deployedLinkReferences": {}
}