{
  "_format": "hh-sol-artifact-1",
  "contractName": "Atomic37x",
  "sourceName": "contracts/Atomic37x.sol",
  "abi": [
    {
      "inputs": [],
      "stateMutability": "nonpayable",
      "type": "constructor"
    },
    {
      "anonymous": false,
      "inputs": [
        {
          "indexed": true,
          "internalType": "address",
          "name": "owner",
          "type": "address"
        },
        {
          "indexed": true,
          "internalType": "address",
          "name": "approved",
          "type": "address"
        },
        {
          "indexed": true,
          "internalType": "uint256",
          "name": "tokenId",
          "type": "uint256"
        }
      ],
      "name": "Approval",
      "type": "event"
    },
    {
      "anonymous": false,
      "inputs": [
        {
          "indexed": true,
          "internalType": "address",
          "name": "owner",
          "type": "address"
        },
        {
          "indexed": true,
          "internalType": "address",
          "name": "operator",
          "type": "address"
        },
        {
          "indexed": false,
          "internalType": "bool",
          "name": "approved",
          "type": "bool"
        }
      ],
      "name": "ApprovalForAll",
      "type": "event"
    },
    {
      "anonymous": false,
      "inputs": [
        {
          "indexed": true,
          "internalType": "address",
          "name": "from",
          "type": "address"
        },
        {
          "indexed": true,
          "internalType": "address",
          "name": "to",
          "type": "address"
        },
        {
          "indexed": true,
          "internalType": "uint256",
          "name": "tokenId",
          "type": "uint256"
        }
      ],
      "name": "Transfer",
      "type": "event"
    },
    {
      "inputs": [
        {
          "internalType": "address",
          "name": "to",
          "type": "address"
        },
        {
          "internalType": "uint256",
          "name": "tokenId",
          "type": "uint256"
        }
      ],
      "name": "approve",
      "outputs": [],
      "stateMutability": "nonpayable",
      "type": "function"
    },
    {
      "inputs": [
        {
          "internalType": "address",
          "name": "owner",
          "type": "address"
        }
      ],
      "name": "balanceOf",
      "outputs": [
        {
          "internalType": "uint256",
          "name": "",
          "type": "uint256"
        }
      ],
      "stateMutability": "view",
      "type": "function"
    },
    {
      "inputs": [
        {
          "internalType": "string",
          "name": "s1",
          "type": "string"
        },
        {
          "internalType": "string",
          "name": "s2",
          "type": "string"
        }
      ],
      "name": "compareStrings",
      "outputs": [
        {
          "internalType": "bool",
          "name": "",
          "type": "bool"
        }
      ],
      "stateMutability": "pure",
      "type": "function"
    },
    {
      "inputs": [
        {
          "internalType": "string",
          "name": "goal",
          "type": "string"
        }
      ],
      "name": "createItem",
      "outputs": [],
      "stateMutability": "nonpayable",
      "type": "function"
    },
    {
      "inputs": [
        {
          "internalType": "uint256",
          "name": "tokenId",
          "type": "uint256"
        }
      ],
      "name": "generateSVG",
      "outputs": [
        {
          "internalType": "string",
          "name": "",
          "type": "string"
        }
      ],
      "stateMutability": "view",
      "type": "function"
    },
    {
      "inputs": [
        {
          "internalType": "uint256",
          "name": "tokenId",
          "type": "uint256"
        }
      ],
      "name": "getApproved",
      "outputs": [
        {
          "internalType": "address",
          "name": "",
          "type": "address"
        }
      ],
      "stateMutability": "view",
      "type": "function"
    },
    {
      "inputs": [
        {
          "internalType": "uint256",
          "name": "tokenId",
          "type": "uint256"
        }
      ],
      "name": "getLastTrainedTime",
      "outputs": [
        {
          "internalType": "uint256",
          "name": "",
          "type": "uint256"
        }
      ],
      "stateMutability": "view",
      "type": "function"
    },
    {
      "inputs": [
        {
          "internalType": "uint256",
          "name": "tokenId",
          "type": "uint256"
        }
      ],
      "name": "getLevel",
      "outputs": [
        {
          "internalType": "string",
          "name": "",
          "type": "string"
        }
      ],
      "stateMutability": "view",
      "type": "function"
    },
    {
      "inputs": [
        {
          "internalType": "uint256",
          "name": "tokenId",
          "type": "uint256"
        }
      ],
      "name": "getTokenURI",
      "outputs": [
        {
          "internalType": "string",
          "name": "",
          "type": "string"
        }
      ],
      "stateMutability": "view",
      "type": "function"
    },
    {
      "inputs": [
        {
          "internalType": "uint256",
          "name": "tokenId",
          "type": "uint256"
        }
      ],
      "name": "giveUp",
      "outputs": [],
      "stateMutability": "payable",
      "type": "function"
    },
    {
      "inputs": [
        {
          "internalType": "uint256",
          "name": "",
          "type": "uint256"
        }
      ],
      "name": "habits",
      "outputs": [
        {
          "internalType": "uint256",
          "name": "level",
          "type": "uint256"
        },
        {
          "internalType": "uint256",
          "name": "lastTrainedTime",
          "type": "uint256"
        },
        {
          "internalType": "string",
          "name": "goal",
          "type": "string"
        }
      ],
      "stateMutability": "view",
      "type": "function"
    },
    {
      "inputs": [
        {
          "internalType": "uint256",
          "name": "tokenId",
          "type": "uint256"
        }
      ],
      "name": "increaseLevel",
      "outputs": [],
      "stateMutability": "nonpayable",
      "type": "function"
    },
    {
      "inputs": [
        {
          "internalType": "address",
          "name": "owner",
          "type": "address"
        },
        {
          "internalType": "address",
          "name": "operator",
          "type": "address"
        }
      ],
      "name": "isApprovedForAll",
      "outputs": [
        {
          "internalType": "bool",
          "name": "",
          "type": "bool"
        }
      ],
      "stateMutability": "view",
      "type": "function"
    },
    {
      "inputs": [],
      "name": "name",
      "outputs": [
        {
          "internalType": "string",
          "name": "",
          "type": "string"
        }
      ],
      "stateMutability": "view",
      "type": "function"
    },
    {
      "inputs": [],
      "name": "owner",
      "outputs": [
        {
          "internalType": "address",
          "name": "",
          "type": "address"
        }
      ],
      "stateMutability": "view",
      "type": "function"
    },
    {
      "inputs": [
        {
          "internalType": "uint256",
          "name": "tokenId",
          "type": "uint256"
        }
      ],
      "name": "ownerOf",
      "outputs": [
        {
          "internalType": "address",
          "name": "",
          "type": "address"
        }
      ],
      "stateMutability": "view",
      "type": "function"
    },
    {
      "inputs": [
        {
          "internalType": "address",
          "name": "from",
          "type": "address"
        },
        {
          "internalType": "address",
          "name": "to",
          "type": "address"
        },
        {
          "internalType": "uint256",
          "name": "tokenId",
          "type": "uint256"
        }
      ],
      "name": "safeTransferFrom",
      "outputs": [],
      "stateMutability": "nonpayable",
      "type": "function"
    },
    {
      "inputs": [
        {
          "internalType": "address",
          "name": "from",
          "type": "address"
        },
        {
          "internalType": "address",
          "name": "to",
          "type": "address"
        },
        {
          "internalType": "uint256",
          "name": "tokenId",
          "type": "uint256"
        },
        {
          "internalType": "bytes",
          "name": "data",
          "type": "bytes"
        }
      ],
      "name": "safeTransferFrom",
      "outputs": [],
      "stateMutability": "nonpayable",
      "type": "function"
    },
    {
      "inputs": [
        {
          "internalType": "address",
          "name": "operator",
          "type": "address"
        },
        {
          "internalType": "bool",
          "name": "approved",
          "type": "bool"
        }
      ],
      "name": "setApprovalForAll",
      "outputs": [],
      "stateMutability": "nonpayable",
      "type": "function"
    },
    {
      "inputs": [
        {
          "internalType": "uint256",
          "name": "tokenId",
          "type": "uint256"
        },
        {
          "internalType": "uint256",
          "name": "time",
          "type": "uint256"
        }
      ],
      "name": "setLastTrainedTime",
      "outputs": [],
      "stateMutability": "nonpayable",
      "type": "function"
    },
    {
      "inputs": [
        {
          "internalType": "bytes4",
          "name": "interfaceId",
          "type": "bytes4"
        }
      ],
      "name": "supportsInterface",
      "outputs": [
        {
          "internalType": "bool",
          "name": "",
          "type": "bool"
        }
      ],
      "stateMutability": "view",
      "type": "function"
    },
    {
      "inputs": [],
      "name": "symbol",
      "outputs": [
        {
          "internalType": "string",
          "name": "",
          "type": "string"
        }
      ],
      "stateMutability": "view",
      "type": "function"
    },
    {
      "inputs": [
        {
          "internalType": "uint256",
          "name": "index",
          "type": "uint256"
        }
      ],
      "name": "tokenByIndex",
      "outputs": [
        {
          "internalType": "uint256",
          "name": "",
          "type": "uint256"
        }
      ],
      "stateMutability": "view",
      "type": "function"
    },
    {
      "inputs": [
        {
          "internalType": "address",
          "name": "owner",
          "type": "address"
        },
        {
          "internalType": "uint256",
          "name": "index",
          "type": "uint256"
        }
      ],
      "name": "tokenOfOwnerByIndex",
      "outputs": [
        {
          "internalType": "uint256",
          "name": "",
          "type": "uint256"
        }
      ],
      "stateMutability": "view",
      "type": "function"
    },
    {
      "inputs": [
        {
          "internalType": "uint256",
          "name": "tokenId",
          "type": "uint256"
        }
      ],
      "name": "tokenURI",
      "outputs": [
        {
          "internalType": "string",
          "name": "",
          "type": "string"
        }
      ],
      "stateMutability": "view",
      "type": "function"
    },
    {
      "inputs": [],
      "name": "totalSupply",
      "outputs": [
        {
          "internalType": "uint256",
          "name": "",
          "type": "uint256"
        }
      ],
      "stateMutability": "view",
      "type": "function"
    },
    {
      "inputs": [
        {
          "internalType": "uint256",
          "name": "tokenId",
          "type": "uint256"
        }
      ],
      "name": "train",
      "outputs": [],
      "stateMutability": "nonpayable",
      "type": "function"
    },
    {
      "inputs": [
        {
          "internalType": "address",
          "name": "from",
          "type": "address"
        },
        {
          "internalType": "address",
          "name": "to",
          "type": "address"
        },
        {
          "internalType": "uint256",
          "name": "tokenId",
          "type": "uint256"
        }
      ],
      "name": "transferFrom",
      "outputs": [],
      "stateMutability": "nonpayable",
      "type": "function"
    }
  ],
  "bytecode": "0x60806040523480156200001157600080fd5b506040518060400160405280601081526020017f41746f6d696320486162697420333778000000000000000000000000000000008152506040518060400160405280600581526020017f414833377800000000000000000000000000000000000000000000000000000081525081600090816200008f919062000365565b508060019081620000a1919062000365565b50505033600c60006101000a81548173ffffffffffffffffffffffffffffffffffffffff021916908373ffffffffffffffffffffffffffffffffffffffff1602179055506200044c565b600081519050919050565b7f4e487b7100000000000000000000000000000000000000000000000000000000600052604160045260246000fd5b7f4e487b7100000000000000000000000000000000000000000000000000000000600052602260045260246000fd5b600060028204905060018216806200016d57607f821691505b60208210810362000183576200018262000125565b5b50919050565b60008190508160005260206000209050919050565b60006020601f8301049050919050565b600082821b905092915050565b600060088302620001ed7fffffffffffffffffffffffffffffffffffffffffffffffffffffffffffffffff82620001ae565b620001f98683620001ae565b95508019841693508086168417925050509392505050565b6000819050919050565b6000819050919050565b600062000246620002406200023a8462000211565b6200021b565b62000211565b9050919050565b6000819050919050565b620002628362000225565b6200027a62000271826200024d565b848454620001bb565b825550505050565b600090565b6200029162000282565b6200029e81848462000257565b505050565b5b81811015620002c657620002ba60008262000287565b600181019050620002a4565b5050565b601f8211156200031557620002df8162000189565b620002ea846200019e565b81016020851015620002fa578190505b6200031262000309856200019e565b830182620002a3565b50505b505050565b600082821c905092915050565b60006200033a600019846008026200031a565b1980831691505092915050565b600062000355838362000327565b9150826002028217905092915050565b6200037082620000eb565b67ffffffffffffffff8111156200038c576200038b620000f6565b5b62000398825462000154565b620003a5828285620002ca565b600060209050601f831160018114620003dd5760008415620003c8578287015190505b620003d4858262000347565b86555062000444565b601f198416620003ed8662000189565b60005b828110156200041757848901518255600182019150602085019450602081019050620003f0565b8683101562000437578489015162000433601f89168262000327565b8355505b6001600288020188555050505b505050505050565b6154dc806200045c6000396000f3fe6080604052600436106101b75760003560e01c80634f6ccce7116100ec5780639f1f17ea1161008a578063bed34bba11610064578063bed34bba14610659578063c87b56dd14610696578063e65bb91e146106d3578063e985e9c514610710576101b7565b80639f1f17ea146105c8578063a22cb46514610607578063b88d4fde14610630576101b7565b806370a08231116100c657806370a08231146104f857806386481d40146105355780638da5cb5b1461057257806395d89b411461059d576101b7565b80634f6ccce7146104415780636352211e1461047e5780636dcee4ca146104bb576101b7565b8063259c1eac116101595780633bb3a24d116101335780633bb3a24d146103895780633d54eebb146103c657806341207105146103ef57806342842e0e14610418576101b7565b8063259c1eac146102fa5780632f745c5914610323578063368004ed14610360576101b7565b8063095ea7b311610195578063095ea7b31461026157806318160ddd1461028a57806322671fe9146102b557806323b872dd146102d1576101b7565b806301ffc9a7146101bc57806306fdde03146101f9578063081812fc14610224575b600080fd5b3480156101c857600080fd5b506101e360048036038101906101de9190613248565b61074d565b6040516101f09190613290565b60405180910390f35b34801561020557600080fd5b5061020e61075f565b60405161021b919061333b565b60405180910390f35b34801561023057600080fd5b5061024b60048036038101906102469190613393565b6107f1565b6040516102589190613401565b60405180910390f35b34801561026d57600080fd5b5061028860048036038101906102839190613448565b610837565b005b34801561029657600080fd5b5061029f61094e565b6040516102ac9190613497565b60405180910390f35b6102cf60048036038101906102ca9190613393565b61095b565b005b3480156102dd57600080fd5b506102f860048036038101906102f391906134b2565b610b4b565b005b34801561030657600080fd5b50610321600480360381019061031c9190613505565b610bab565b005b34801561032f57600080fd5b5061034a60048036038101906103459190613448565b610cc3565b6040516103579190613497565b60405180910390f35b34801561036c57600080fd5b5061038760048036038101906103829190613393565b610d68565b005b34801561039557600080fd5b506103b060048036038101906103ab9190613393565b610f00565b6040516103bd919061333b565b60405180910390f35b3480156103d257600080fd5b506103ed60048036038101906103e891906135aa565b610f68565b005b3480156103fb57600080fd5b5061041660048036038101906104119190613393565b611119565b005b34801561042457600080fd5b5061043f600480360381019061043a91906134b2565b611240565b005b34801561044d57600080fd5b5061046860048036038101906104639190613393565b611260565b6040516104759190613497565b60405180910390f35b34801561048a57600080fd5b506104a560048036038101906104a09190613393565b6112d1565b6040516104b29190613401565b60405180910390f35b3480156104c757600080fd5b506104e260048036038101906104dd9190613393565b611357565b6040516104ef919061333b565b60405180910390f35b34801561050457600080fd5b5061051f600480360381019061051a91906135f7565b6113b5565b60405161052c9190613497565b60405180910390f35b34801561054157600080fd5b5061055c60048036038101906105579190613393565b61146c565b604051610569919061333b565b60405180910390f35b34801561057e57600080fd5b5061058761154b565b6040516105949190613401565b60405180910390f35b3480156105a957600080fd5b506105b2611571565b6040516105bf919061333b565b60405180910390f35b3480156105d457600080fd5b506105ef60048036038101906105ea9190613393565b611603565b6040516105fe93929190613624565b60405180910390f35b34801561061357600080fd5b5061062e6004803603810190610629919061368e565b6116b5565b005b34801561063c57600080fd5b50610657600480360381019061065291906137fe565b6116cb565b005b34801561066557600080fd5b50610680600480360381019061067b9190613922565b61172d565b60405161068d9190613290565b60405180910390f35b3480156106a257600080fd5b506106bd60048036038101906106b89190613393565b611748565b6040516106ca919061333b565b60405180910390f35b3480156106df57600080fd5b506106fa60048036038101906106f59190613393565b61175a565b6040516107079190613497565b60405180910390f35b34801561071c57600080fd5b506107376004803603810190610732919061399a565b611830565b6040516107449190613290565b60405180910390f35b6000610758826118c4565b9050919050565b60606000805461076e90613a09565b80601f016020809104026020016040519081016040528092919081815260200182805461079a90613a09565b80156107e75780601f106107bc576101008083540402835291602001916107e7565b820191906000526020600020905b8154815290600101906020018083116107ca57829003601f168201915b5050505050905090565b60006107fc8261193e565b6004600083815260200190815260200160002060009054906101000a900473ffffffffffffffffffffffffffffffffffffffff169050919050565b6000610842826112d1565b90508073ffffffffffffffffffffffffffffffffffffffff168373ffffffffffffffffffffffffffffffffffffffff16036108b2576040517f08c379a00000000000000000000000000000000000000000000000000000000081526004016108a990613aac565b60405180910390fd5b8073ffffffffffffffffffffffffffffffffffffffff166108d1611989565b73ffffffffffffffffffffffffffffffffffffffff16148061090057506108ff816108fa611989565b611830565b5b61093f576040517f08c379a000000000000000000000000000000000000000000000000000000000815260040161093690613b3e565b60405180910390fd5b6109498383611991565b505050565b6000600880549050905090565b3373ffffffffffffffffffffffffffffffffffffffff1661097b826112d1565b73ffffffffffffffffffffffffffffffffffffffff16146109d1576040517f08c379a00000000000000000000000000000000000000000000000000000000081526004016109c890613baa565b60405180910390fd5b610a186109dd8261146c565b6040518060400160405280600181526020017f300000000000000000000000000000000000000000000000000000000000000081525061172d565b610a57576040517f08c379a0000000000000000000000000000000000000000000000000000000008152600401610a4e90613c16565b60405180910390fd5b66038d7ea4c680003414610aa0576040517f08c379a0000000000000000000000000000000000000000000000000000000008152600401610a9790613c82565b60405180910390fd5b600c60009054906101000a900473ffffffffffffffffffffffffffffffffffffffff1673ffffffffffffffffffffffffffffffffffffffff166108fc349081150290604051600060405180830381858888f19350505050158015610b08573d6000803e3d6000fd5b50610b1281611a4a565b600d60008281526020019081526020016000206000808201600090556001820160009055600282016000610b46919061317f565b505050565b610b5c610b56611989565b82611a56565b610b9b576040517f08c379a0000000000000000000000000000000000000000000000000000000008152600401610b9290613d14565b60405180910390fd5b610ba6838383611aeb565b505050565b6000600d60008481526020019081526020016000206040518060600160405290816000820154815260200160018201548152602001600282018054610bef90613a09565b80601f0160208091040260200160405190810160405280929190818152602001828054610c1b90613a09565b8015610c685780601f10610c3d57610100808354040283529160200191610c68565b820191906000526020600020905b815481529060010190602001808311610c4b57829003601f168201915b50505050508152505090508181602001818152505080600d600085815260200190815260200160002060008201518160000155602082015181600101556040820151816002019081610cba9190613ee0565b50905050505050565b6000610cce836113b5565b8210610d0f576040517f08c379a0000000000000000000000000000000000000000000000000000000008152600401610d0690614024565b60405180910390fd5b600660008473ffffffffffffffffffffffffffffffffffffffff1673ffffffffffffffffffffffffffffffffffffffff168152602001908152602001600020600083815260200190815260200160002054905092915050565b610d7181611de4565b610db0576040517f08c379a0000000000000000000000000000000000000000000000000000000008152600401610da790614090565b60405180910390fd5b3373ffffffffffffffffffffffffffffffffffffffff16610dd0826112d1565b73ffffffffffffffffffffffffffffffffffffffff1614610e26576040517f08c379a0000000000000000000000000000000000000000000000000000000008152600401610e1d906140fc565b60405180910390fd5b4262015180610e348361175a565b610e3e919061414b565b1115610e7f576040517f08c379a0000000000000000000000000000000000000000000000000000000008152600401610e76906141f1565b60405180910390fd5b4262278d00610e8d8361175a565b610e97919061414b565b1015610ed8576040517f08c379a0000000000000000000000000000000000000000000000000000000008152600401610ecf906142a9565b60405180910390fd5b610ee28142610bab565b610eeb81611119565b610efd81610ef883610f00565b611e25565b50565b60606000610f0d83611e92565b610f1684611357565b604051602001610f2792919061453f565b6040516020818303038152906040529050610f4181611f60565b604051602001610f5191906145fc565b604051602081830303815290604052915050919050565b6000610f73336113b5565b14610fb3576040517f08c379a0000000000000000000000000000000000000000000000000000000008152600401610faa9061466a565b60405180910390fd5b60008282905011610ff9576040517f08c379a0000000000000000000000000000000000000000000000000000000008152600401610ff0906146d6565b60405180910390fd5b6101188282905010611040576040517f08c379a000000000000000000000000000000000000000000000000000000000815260040161103790614742565b60405180910390fd5b61104a600b6120c3565b6000611056600b6120d9565b905060405180606001604052806000815260200142815260200184848080601f016020809104026020016040519081016040528093929190818152602001838380828437600081840152601f19601f82011690508083019250505050505050815250600d6000838152602001908152602001600020600082015181600001556020820151816001015560408201518160020190816110f49190613ee0565b5090505061110233826120e7565b6111148161110f83610f00565b611e25565b505050565b6000600d6000838152602001908152602001600020604051806060016040529081600082015481526020016001820154815260200160028201805461115d90613a09565b80601f016020809104026020016040519081016040528092919081815260200182805461118990613a09565b80156111d65780601f106111ab576101008083540402835291602001916111d6565b820191906000526020600020905b8154815290600101906020018083116111b957829003601f168201915b5050505050815250509050600181600001516111f2919061414b565b81600001818152505080600d6000848152602001908152602001600020600082015181600001556020820151816001015560408201518160020190816112389190613ee0565b509050505050565b61125b838383604051806020016040528060008152506116cb565b505050565b600061126a61094e565b82106112ab576040517f08c379a00000000000000000000000000000000000000000000000000000000081526004016112a2906147d4565b60405180910390fd5b600882815481106112bf576112be6147f4565b5b90600052602060002001549050919050565b6000806112dd83612105565b9050600073ffffffffffffffffffffffffffffffffffffffff168173ffffffffffffffffffffffffffffffffffffffff160361134e576040517f08c379a00000000000000000000000000000000000000000000000000000000081526004016113459061486f565b60405180910390fd5b80915050919050565b606060006113648361146c565b6040516020016113749190614cb7565b604051602081830303815290604052905061138e81611f60565b60405160200161139e9190614d88565b604051602081830303815290604052915050919050565b60008073ffffffffffffffffffffffffffffffffffffffff168273ffffffffffffffffffffffffffffffffffffffff1603611425576040517f08c379a000000000000000000000000000000000000000000000000000000000815260040161141c90614e1c565b60405180910390fd5b600360008373ffffffffffffffffffffffffffffffffffffffff1673ffffffffffffffffffffffffffffffffffffffff168152602001908152602001600020549050919050565b60606000600d600084815260200190815260200160002060405180606001604052908160008201548152602001600182015481526020016002820180546114b290613a09565b80601f01602080910402602001604051908101604052809291908181526020018280546114de90613a09565b801561152b5780601f106115005761010080835404028352916020019161152b565b820191906000526020600020905b81548152906001019060200180831161150e57829003601f168201915b50505050508152505090506115438160000151611e92565b915050919050565b600c60009054906101000a900473ffffffffffffffffffffffffffffffffffffffff1681565b60606001805461158090613a09565b80601f01602080910402602001604051908101604052809291908181526020018280546115ac90613a09565b80156115f95780601f106115ce576101008083540402835291602001916115f9565b820191906000526020600020905b8154815290600101906020018083116115dc57829003601f168201915b5050505050905090565b600d60205280600052604060002060009150905080600001549080600101549080600201805461163290613a09565b80601f016020809104026020016040519081016040528092919081815260200182805461165e90613a09565b80156116ab5780601f10611680576101008083540402835291602001916116ab565b820191906000526020600020905b81548152906001019060200180831161168e57829003601f168201915b5050505050905083565b6116c76116c0611989565b8383612142565b5050565b6116dc6116d6611989565b83611a56565b61171b576040517f08c379a000000000000000000000000000000000000000000000000000000000815260040161171290613d14565b60405180910390fd5b611727848484846122ae565b50505050565b60008180519060200120838051906020012014905092915050565b60606117538261230a565b9050919050565b600080600d6000848152602001908152602001600020604051806060016040529081600082015481526020016001820154815260200160028201805461179f90613a09565b80601f01602080910402602001604051908101604052809291908181526020018280546117cb90613a09565b80156118185780601f106117ed57610100808354040283529160200191611818565b820191906000526020600020905b8154815290600101906020018083116117fb57829003601f168201915b50505050508152505090508060200151915050919050565b6000600560008473ffffffffffffffffffffffffffffffffffffffff1673ffffffffffffffffffffffffffffffffffffffff16815260200190815260200160002060008373ffffffffffffffffffffffffffffffffffffffff1673ffffffffffffffffffffffffffffffffffffffff16815260200190815260200160002060009054906101000a900460ff16905092915050565b60007f780e9d63000000000000000000000000000000000000000000000000000000007bffffffffffffffffffffffffffffffffffffffffffffffffffffffff1916827bffffffffffffffffffffffffffffffffffffffffffffffffffffffff1916148061193757506119368261241c565b5b9050919050565b61194781611de4565b611986576040517f08c379a000000000000000000000000000000000000000000000000000000000815260040161197d9061486f565b60405180910390fd5b50565b600033905090565b816004600083815260200190815260200160002060006101000a81548173ffffffffffffffffffffffffffffffffffffffff021916908373ffffffffffffffffffffffffffffffffffffffff160217905550808273ffffffffffffffffffffffffffffffffffffffff16611a04836112d1565b73ffffffffffffffffffffffffffffffffffffffff167f8c5be1e5ebec7d5bd14f71427d1e84f3dd0314c0f7b2291e5b200ac8c7c3b92560405160405180910390a45050565b611a53816124fe565b50565b600080611a62836112d1565b90508073ffffffffffffffffffffffffffffffffffffffff168473ffffffffffffffffffffffffffffffffffffffff161480611aa45750611aa38185611830565b5b80611ae257508373ffffffffffffffffffffffffffffffffffffffff16611aca846107f1565b73ffffffffffffffffffffffffffffffffffffffff16145b91505092915050565b8273ffffffffffffffffffffffffffffffffffffffff16611b0b826112d1565b73ffffffffffffffffffffffffffffffffffffffff1614611b61576040517f08c379a0000000000000000000000000000000000000000000000000000000008152600401611b5890614eae565b60405180910390fd5b600073ffffffffffffffffffffffffffffffffffffffff168273ffffffffffffffffffffffffffffffffffffffff1603611bd0576040517f08c379a0000000000000000000000000000000000000000000000000000000008152600401611bc790614f40565b60405180910390fd5b611bdd8383836001612551565b8273ffffffffffffffffffffffffffffffffffffffff16611bfd826112d1565b73ffffffffffffffffffffffffffffffffffffffff1614611c53576040517f08c379a0000000000000000000000000000000000000000000000000000000008152600401611c4a90614eae565b60405180910390fd5b6004600082815260200190815260200160002060006101000a81549073ffffffffffffffffffffffffffffffffffffffff02191690556001600360008573ffffffffffffffffffffffffffffffffffffffff1673ffffffffffffffffffffffffffffffffffffffff168152602001908152602001600020600082825403925050819055506001600360008473ffffffffffffffffffffffffffffffffffffffff1673ffffffffffffffffffffffffffffffffffffffff16815260200190815260200160002060008282540192505081905550816002600083815260200190815260200160002060006101000a81548173ffffffffffffffffffffffffffffffffffffffff021916908373ffffffffffffffffffffffffffffffffffffffff160217905550808273ffffffffffffffffffffffffffffffffffffffff168473ffffffffffffffffffffffffffffffffffffffff167fddf252ad1be2c89b69c2b068fc378daa952ba7f163c4a11628f55a4df523b3ef60405160405180910390a4611ddf8383836001612563565b505050565b60008073ffffffffffffffffffffffffffffffffffffffff16611e0683612105565b73ffffffffffffffffffffffffffffffffffffffff1614159050919050565b611e2e82611de4565b611e6d576040517f08c379a0000000000000000000000000000000000000000000000000000000008152600401611e6490614fd2565b60405180910390fd5b80600a60008481526020019081526020016000209081611e8d9190613ee0565b505050565b606060006001611ea184612569565b01905060008167ffffffffffffffff811115611ec057611ebf6136d3565b5b6040519080825280601f01601f191660200182016040528015611ef25781602001600182028036833780820191505090505b509050600082602001820190505b600115611f55578080600190039150507f3031323334353637383961626364656600000000000000000000000000000000600a86061a8153600a8581611f4957611f48614ff2565b5b04945060008503611f00575b819350505050919050565b60606000825103611f82576040518060200160405280600081525090506120be565b60006040518060600160405280604081526020016154676040913990506000600360028551611fb1919061414b565b611fbb9190615021565b6004611fc79190615052565b67ffffffffffffffff811115611fe057611fdf6136d3565b5b6040519080825280601f01601f1916602001820160405280156120125781602001600182028036833780820191505090505b509050600182016020820185865187015b8082101561207e576003820191508151603f8160121c168501518453600184019350603f81600c1c168501518453600184019350603f8160061c168501518453600184019350603f8116850151845360018401935050612023565b505060038651066001811461209a57600281146120ad576120b5565b603d6001830353603d60028303536120b5565b603d60018303535b50505080925050505b919050565b6001816000016000828254019250508190555050565b600081600001549050919050565b6121018282604051806020016040528060008152506126bc565b5050565b60006002600083815260200190815260200160002060009054906101000a900473ffffffffffffffffffffffffffffffffffffffff169050919050565b8173ffffffffffffffffffffffffffffffffffffffff168373ffffffffffffffffffffffffffffffffffffffff16036121b0576040517f08c379a00000000000000000000000000000000000000000000000000000000081526004016121a7906150e0565b60405180910390fd5b80600560008573ffffffffffffffffffffffffffffffffffffffff1673ffffffffffffffffffffffffffffffffffffffff16815260200190815260200160002060008473ffffffffffffffffffffffffffffffffffffffff1673ffffffffffffffffffffffffffffffffffffffff16815260200190815260200160002060006101000a81548160ff0219169083151502179055508173ffffffffffffffffffffffffffffffffffffffff168373ffffffffffffffffffffffffffffffffffffffff167f17307eab39ab6107e8899845ad3d59bd9653f200f220920489ca2b5937696c31836040516122a19190613290565b60405180910390a3505050565b6122b9848484611aeb565b6122c584848484612717565b612304576040517f08c379a00000000000000000000000000000000000000000000000000000000081526004016122fb90615172565b60405180910390fd5b50505050565b60606123158261193e565b6000600a6000848152602001908152602001600020805461233590613a09565b80601f016020809104026020016040519081016040528092919081815260200182805461236190613a09565b80156123ae5780601f10612383576101008083540402835291602001916123ae565b820191906000526020600020905b81548152906001019060200180831161239157829003601f168201915b5050505050905060006123bf61289e565b905060008151036123d4578192505050612417565b6000825111156124095780826040516020016123f1929190615192565b60405160208183030381529060405292505050612417565b612412846128b5565b925050505b919050565b60007f80ac58cd000000000000000000000000000000000000000000000000000000007bffffffffffffffffffffffffffffffffffffffffffffffffffffffff1916827bffffffffffffffffffffffffffffffffffffffffffffffffffffffff191614806124e757507f5b5e139f000000000000000000000000000000000000000000000000000000007bffffffffffffffffffffffffffffffffffffffffffffffffffffffff1916827bffffffffffffffffffffffffffffffffffffffffffffffffffffffff1916145b806124f757506124f68261291d565b5b9050919050565b61250781612987565b6000600a6000838152602001908152602001600020805461252790613a09565b90501461254e57600a6000828152602001908152602001600020600061254d919061317f565b5b50565b61255d84848484612ad5565b50505050565b50505050565b600080600090507a184f03e93ff9f4daa797ed6e38ed64bf6a1f01000000000000000083106125c7577a184f03e93ff9f4daa797ed6e38ed64bf6a1f01000000000000000083816125bd576125bc614ff2565b5b0492506040810190505b6d04ee2d6d415b85acef81000000008310612604576d04ee2d6d415b85acef810000000083816125fa576125f9614ff2565b5b0492506020810190505b662386f26fc10000831061263357662386f26fc10000838161262957612628614ff2565b5b0492506010810190505b6305f5e100831061265c576305f5e100838161265257612651614ff2565b5b0492506008810190505b612710831061268157612710838161267757612676614ff2565b5b0492506004810190505b606483106126a4576064838161269a57612699614ff2565b5b0492506002810190505b600a83106126b3576001810190505b80915050919050565b6126c68383612c33565b6126d36000848484612717565b612712576040517f08c379a000000000000000000000000000000000000000000000000000000000815260040161270990615172565b60405180910390fd5b505050565b60006127388473ffffffffffffffffffffffffffffffffffffffff16612e50565b15612891578373ffffffffffffffffffffffffffffffffffffffff1663150b7a02612761611989565b8786866040518563ffffffff1660e01b8152600401612783949392919061520b565b6020604051808303816000875af19250505080156127bf57506040513d601f19601f820116820180604052508101906127bc919061526c565b60015b612841573d80600081146127ef576040519150601f19603f3d011682016040523d82523d6000602084013e6127f4565b606091505b506000815103612839576040517f08c379a000000000000000000000000000000000000000000000000000000000815260040161283090615172565b60405180910390fd5b805181602001fd5b63150b7a0260e01b7bffffffffffffffffffffffffffffffffffffffffffffffffffffffff1916817bffffffffffffffffffffffffffffffffffffffffffffffffffffffff191614915050612896565b600190505b949350505050565b606060405180602001604052806000815250905090565b60606128c08261193e565b60006128ca61289e565b905060008151116128ea5760405180602001604052806000815250612915565b806128f484611e92565b604051602001612905929190615192565b6040516020818303038152906040525b915050919050565b60007f01ffc9a7000000000000000000000000000000000000000000000000000000007bffffffffffffffffffffffffffffffffffffffffffffffffffffffff1916827bffffffffffffffffffffffffffffffffffffffffffffffffffffffff1916149050919050565b6000612992826112d1565b90506129a2816000846001612551565b6129ab826112d1565b90506004600083815260200190815260200160002060006101000a81549073ffffffffffffffffffffffffffffffffffffffff02191690556001600360008373ffffffffffffffffffffffffffffffffffffffff1673ffffffffffffffffffffffffffffffffffffffff168152602001908152602001600020600082825403925050819055506002600083815260200190815260200160002060006101000a81549073ffffffffffffffffffffffffffffffffffffffff021916905581600073ffffffffffffffffffffffffffffffffffffffff168273ffffffffffffffffffffffffffffffffffffffff167fddf252ad1be2c89b69c2b068fc378daa952ba7f163c4a11628f55a4df523b3ef60405160405180910390a4612ad1816000846001612563565b5050565b612ae184848484612e73565b6001811115612b25576040517f08c379a0000000000000000000000000000000000000000000000000000000008152600401612b1c9061530b565b60405180910390fd5b6000829050600073ffffffffffffffffffffffffffffffffffffffff168573ffffffffffffffffffffffffffffffffffffffff1603612b6c57612b6781612e79565b612bab565b8373ffffffffffffffffffffffffffffffffffffffff168573ffffffffffffffffffffffffffffffffffffffff1614612baa57612ba98582612ec2565b5b5b600073ffffffffffffffffffffffffffffffffffffffff168473ffffffffffffffffffffffffffffffffffffffff1603612bed57612be88161302f565b612c2c565b8473ffffffffffffffffffffffffffffffffffffffff168473ffffffffffffffffffffffffffffffffffffffff1614612c2b57612c2a8482613100565b5b5b5050505050565b600073ffffffffffffffffffffffffffffffffffffffff168273ffffffffffffffffffffffffffffffffffffffff1603612ca2576040517f08c379a0000000000000000000000000000000000000000000000000000000008152600401612c9990615377565b60405180910390fd5b612cab81611de4565b15612ceb576040517f08c379a0000000000000000000000000000000000000000000000000000000008152600401612ce2906153e3565b60405180910390fd5b612cf9600083836001612551565b612d0281611de4565b15612d42576040517f08c379a0000000000000000000000000000000000000000000000000000000008152600401612d39906153e3565b60405180910390fd5b6001600360008473ffffffffffffffffffffffffffffffffffffffff1673ffffffffffffffffffffffffffffffffffffffff16815260200190815260200160002060008282540192505081905550816002600083815260200190815260200160002060006101000a81548173ffffffffffffffffffffffffffffffffffffffff021916908373ffffffffffffffffffffffffffffffffffffffff160217905550808273ffffffffffffffffffffffffffffffffffffffff16600073ffffffffffffffffffffffffffffffffffffffff167fddf252ad1be2c89b69c2b068fc378daa952ba7f163c4a11628f55a4df523b3ef60405160405180910390a4612e4c600083836001612563565b5050565b6000808273ffffffffffffffffffffffffffffffffffffffff163b119050919050565b50505050565b6008805490506009600083815260200190815260200160002081905550600881908060018154018082558091505060019003906000526020600020016000909190919091505550565b60006001612ecf846113b5565b612ed99190615403565b9050600060076000848152602001908152602001600020549050818114612fbe576000600660008673ffffffffffffffffffffffffffffffffffffffff1673ffffffffffffffffffffffffffffffffffffffff168152602001908152602001600020600084815260200190815260200160002054905080600660008773ffffffffffffffffffffffffffffffffffffffff1673ffffffffffffffffffffffffffffffffffffffff168152602001908152602001600020600084815260200190815260200160002081905550816007600083815260200190815260200160002081905550505b6007600084815260200190815260200160002060009055600660008573ffffffffffffffffffffffffffffffffffffffff1673ffffffffffffffffffffffffffffffffffffffff16815260200190815260200160002060008381526020019081526020016000206000905550505050565b600060016008805490506130439190615403565b9050600060096000848152602001908152602001600020549050600060088381548110613073576130726147f4565b5b906000526020600020015490508060088381548110613095576130946147f4565b5b9060005260206000200181905550816009600083815260200190815260200160002081905550600960008581526020019081526020016000206000905560088054806130e4576130e3615437565b5b6001900381819060005260206000200160009055905550505050565b600061310b836113b5565b905081600660008573ffffffffffffffffffffffffffffffffffffffff1673ffffffffffffffffffffffffffffffffffffffff168152602001908152602001600020600083815260200190815260200160002081905550806007600084815260200190815260200160002081905550505050565b50805461318b90613a09565b6000825580601f1061319d57506131bc565b601f0160209004906000526020600020908101906131bb91906131bf565b5b50565b5b808211156131d85760008160009055506001016131c0565b5090565b6000604051905090565b600080fd5b600080fd5b60007fffffffff0000000000000000000000000000000000000000000000000000000082169050919050565b613225816131f0565b811461323057600080fd5b50565b6000813590506132428161321c565b92915050565b60006020828403121561325e5761325d6131e6565b5b600061326c84828501613233565b91505092915050565b60008115159050919050565b61328a81613275565b82525050565b60006020820190506132a56000830184613281565b92915050565b600081519050919050565b600082825260208201905092915050565b60005b838110156132e55780820151818401526020810190506132ca565b60008484015250505050565b6000601f19601f8301169050919050565b600061330d826132ab565b61331781856132b6565b93506133278185602086016132c7565b613330816132f1565b840191505092915050565b600060208201905081810360008301526133558184613302565b905092915050565b6000819050919050565b6133708161335d565b811461337b57600080fd5b50565b60008135905061338d81613367565b92915050565b6000602082840312156133a9576133a86131e6565b5b60006133b78482850161337e565b91505092915050565b600073ffffffffffffffffffffffffffffffffffffffff82169050919050565b60006133eb826133c0565b9050919050565b6133fb816133e0565b82525050565b600060208201905061341660008301846133f2565b92915050565b613425816133e0565b811461343057600080fd5b50565b6000813590506134428161341c565b92915050565b6000806040838503121561345f5761345e6131e6565b5b600061346d85828601613433565b925050602061347e8582860161337e565b9150509250929050565b6134918161335d565b82525050565b60006020820190506134ac6000830184613488565b92915050565b6000806000606084860312156134cb576134ca6131e6565b5b60006134d986828701613433565b93505060206134ea86828701613433565b92505060406134fb8682870161337e565b9150509250925092565b6000806040838503121561351c5761351b6131e6565b5b600061352a8582860161337e565b925050602061353b8582860161337e565b9150509250929050565b600080fd5b600080fd5b600080fd5b60008083601f84011261356a57613569613545565b5b8235905067ffffffffffffffff8111156135875761358661354a565b5b6020830191508360018202830111156135a3576135a261354f565b5b9250929050565b600080602083850312156135c1576135c06131e6565b5b600083013567ffffffffffffffff8111156135df576135de6131eb565b5b6135eb85828601613554565b92509250509250929050565b60006020828403121561360d5761360c6131e6565b5b600061361b84828501613433565b91505092915050565b60006060820190506136396000830186613488565b6136466020830185613488565b81810360408301526136588184613302565b9050949350505050565b61366b81613275565b811461367657600080fd5b50565b60008135905061368881613662565b92915050565b600080604083850312156136a5576136a46131e6565b5b60006136b385828601613433565b92505060206136c485828601613679565b9150509250929050565b600080fd5b7f4e487b7100000000000000000000000000000000000000000000000000000000600052604160045260246000fd5b61370b826132f1565b810181811067ffffffffffffffff8211171561372a576137296136d3565b5b80604052505050565b600061373d6131dc565b90506137498282613702565b919050565b600067ffffffffffffffff821115613769576137686136d3565b5b613772826132f1565b9050602081019050919050565b82818337600083830152505050565b60006137a161379c8461374e565b613733565b9050828152602081018484840111156137bd576137bc6136ce565b5b6137c884828561377f565b509392505050565b600082601f8301126137e5576137e4613545565b5b81356137f584826020860161378e565b91505092915050565b60008060008060808587031215613818576138176131e6565b5b600061382687828801613433565b945050602061383787828801613433565b93505060406138488782880161337e565b925050606085013567ffffffffffffffff811115613869576138686131eb565b5b613875878288016137d0565b91505092959194509250565b600067ffffffffffffffff82111561389c5761389b6136d3565b5b6138a5826132f1565b9050602081019050919050565b60006138c56138c084613881565b613733565b9050828152602081018484840111156138e1576138e06136ce565b5b6138ec84828561377f565b509392505050565b600082601f83011261390957613908613545565b5b81356139198482602086016138b2565b91505092915050565b60008060408385031215613939576139386131e6565b5b600083013567ffffffffffffffff811115613957576139566131eb565b5b613963858286016138f4565b925050602083013567ffffffffffffffff811115613984576139836131eb565b5b613990858286016138f4565b9150509250929050565b600080604083850312156139b1576139b06131e6565b5b60006139bf85828601613433565b92505060206139d085828601613433565b9150509250929050565b7f4e487b7100000000000000000000000000000000000000000000000000000000600052602260045260246000fd5b60006002820490506001821680613a2157607f821691505b602082108103613a3457613a336139da565b5b50919050565b7f4552433732313a20617070726f76616c20746f2063757272656e74206f776e6560008201527f7200000000000000000000000000000000000000000000000000000000000000602082015250565b6000613a966021836132b6565b9150613aa182613a3a565b604082019050919050565b60006020820190508181036000830152613ac581613a89565b9050919050565b7f4552433732313a20617070726f76652063616c6c6572206973206e6f7420746f60008201527f6b656e206f776e6572206f7220617070726f76656420666f7220616c6c000000602082015250565b6000613b28603d836132b6565b9150613b3382613acc565b604082019050919050565b60006020820190508181036000830152613b5781613b1b565b9050919050565b7f4f6e6c79206f776e65722063616e206769766520757000000000000000000000600082015250565b6000613b946016836132b6565b9150613b9f82613b5e565b602082019050919050565b60006020820190508181036000830152613bc381613b87565b9050919050565b7f53686f756c64206e6f742067697665207570206265666f726520737461727400600082015250565b6000613c00601f836132b6565b9150613c0b82613bca565b602082019050919050565b60006020820190508181036000830152613c2f81613bf3565b9050919050565b7f4e65656420746f2070617920302e3030312045544820746f2067697665207570600082015250565b6000613c6c6020836132b6565b9150613c7782613c36565b602082019050919050565b60006020820190508181036000830152613c9b81613c5f565b9050919050565b7f4552433732313a2063616c6c6572206973206e6f7420746f6b656e206f776e6560008201527f72206f7220617070726f76656400000000000000000000000000000000000000602082015250565b6000613cfe602d836132b6565b9150613d0982613ca2565b604082019050919050565b60006020820190508181036000830152613d2d81613cf1565b9050919050565b60008190508160005260206000209050919050565b60006020601f8301049050919050565b600082821b905092915050565b600060088302613d967fffffffffffffffffffffffffffffffffffffffffffffffffffffffffffffffff82613d59565b613da08683613d59565b95508019841693508086168417925050509392505050565b6000819050919050565b6000613ddd613dd8613dd38461335d565b613db8565b61335d565b9050919050565b6000819050919050565b613df783613dc2565b613e0b613e0382613de4565b848454613d66565b825550505050565b600090565b613e20613e13565b613e2b818484613dee565b505050565b5b81811015613e4f57613e44600082613e18565b600181019050613e31565b5050565b601f821115613e9457613e6581613d34565b613e6e84613d49565b81016020851015613e7d578190505b613e91613e8985613d49565b830182613e30565b50505b505050565b600082821c905092915050565b6000613eb760001984600802613e99565b1980831691505092915050565b6000613ed08383613ea6565b9150826002028217905092915050565b613ee9826132ab565b67ffffffffffffffff811115613f0257613f016136d3565b5b613f0c8254613a09565b613f17828285613e53565b600060209050601f831160018114613f4a5760008415613f38578287015190505b613f428582613ec4565b865550613faa565b601f198416613f5886613d34565b60005b82811015613f8057848901518255600182019150602085019450602081019050613f5b565b86831015613f9d5784890151613f99601f891682613ea6565b8355505b6001600288020188555050505b505050505050565b7f455243373231456e756d657261626c653a206f776e657220696e646578206f7560008201527f74206f6620626f756e6473000000000000000000000000000000000000000000602082015250565b600061400e602b836132b6565b915061401982613fb2565b604082019050919050565b6000602082019050818103600083015261403d81614001565b9050919050565b7f546f6b656e20646f6573206e6f74206578697374000000000000000000000000600082015250565b600061407a6014836132b6565b915061408582614044565b602082019050919050565b600060208201905081810360008301526140a98161406d565b9050919050565b7f4f6e6c79206f776e65722063616e20747261696e000000000000000000000000600082015250565b60006140e66014836132b6565b91506140f1826140b0565b602082019050919050565b60006020820190508181036000830152614115816140d9565b9050919050565b7f4e487b7100000000000000000000000000000000000000000000000000000000600052601160045260246000fd5b60006141568261335d565b91506141618361335d565b92508282019050808211156141795761417861411c565b5b92915050565b7f546f6b656e2063616e206f6e6c7920626520747261696e6564206f6e6365206560008201527f7665727920323420686f75727300000000000000000000000000000000000000602082015250565b60006141db602d836132b6565b91506141e68261417f565b604082019050919050565b6000602082019050818103600083015261420a816141ce565b9050919050565b7f596f752068617665206e6f7420747261696e656420666f72203330206461797360008201527f2c20796f75206e65656420746f206769766520757020616e642073746172742060208201527f6f76657200000000000000000000000000000000000000000000000000000000604082015250565b60006142936044836132b6565b915061429e82614211565b606082019050919050565b600060208201905081810360008301526142c281614286565b9050919050565b600081905092915050565b7f7b00000000000000000000000000000000000000000000000000000000000000600082015250565b600061430a6001836142c9565b9150614315826142d4565b600182019050919050565b7f226e616d65223a202241746f6d69632048616269742023000000000000000000600082015250565b60006143566017836142c9565b915061436182614320565b601782019050919050565b6000614377826132ab565b61438181856142c9565b93506143918185602086016132c7565b80840191505092915050565b7f222c000000000000000000000000000000000000000000000000000000000000600082015250565b60006143d36002836142c9565b91506143de8261439d565b600282019050919050565b7f226465736372697074696f6e223a20224275696c6420796f75722061746f6d6960008201527f63206861626974206f6e20636861696e222c0000000000000000000000000000602082015250565b60006144456032836142c9565b9150614450826143e9565b603282019050919050565b7f22696d616765223a202200000000000000000000000000000000000000000000600082015250565b6000614491600a836142c9565b915061449c8261445b565b600a82019050919050565b7f2200000000000000000000000000000000000000000000000000000000000000600082015250565b60006144dd6001836142c9565b91506144e8826144a7565b600182019050919050565b7f7d00000000000000000000000000000000000000000000000000000000000000600082015250565b60006145296001836142c9565b9150614534826144f3565b600182019050919050565b600061454a826142fd565b915061455582614349565b9150614561828561436c565b915061456c826143c6565b915061457782614438565b915061458282614484565b915061458e828461436c565b9150614599826144d0565b91506145a48261451c565b91508190509392505050565b7f646174613a6170706c69636174696f6e2f6a736f6e3b6261736536342c000000600082015250565b60006145e6601d836142c9565b91506145f1826145b0565b601d82019050919050565b6000614607826145d9565b9150614613828461436c565b915081905092915050565b7f4f6e6c7920666f637573206f6e206f6e6520676f616c20617420612074696d65600082015250565b60006146546020836132b6565b915061465f8261461e565b602082019050919050565b6000602082019050818103600083015261468381614647565b9050919050565b7f476f616c2063616e6e6f7420626520656d707479000000000000000000000000600082015250565b60006146c06014836132b6565b91506146cb8261468a565b602082019050919050565b600060208201905081810360008301526146ef816146b3565b9050919050565b7f476f616c2063616e6e6f74206265206c6f6e676572207468616e203238300000600082015250565b600061472c601e836132b6565b9150614737826146f6565b602082019050919050565b6000602082019050818103600083015261475b8161471f565b9050919050565b7f455243373231456e756d657261626c653a20676c6f62616c20696e646578206f60008201527f7574206f6620626f756e64730000000000000000000000000000000000000000602082015250565b60006147be602c836132b6565b91506147c982614762565b604082019050919050565b600060208201905081810360008301526147ed816147b1565b9050919050565b7f4e487b7100000000000000000000000000000000000000000000000000000000600052603260045260246000fd5b7f4552433732313a20696e76616c696420746f6b656e2049440000000000000000600082015250565b60006148596018836132b6565b915061486482614823565b602082019050919050565b600060208201905081810360008301526148888161484c565b9050919050565b7f3c73766720786d6c6e733d22687474703a2f2f7777772e77332e6f72672f323060008201527f30302f73766722207072657365727665417370656374526174696f3d22784d6960208201527f6e594d696e206d656574222076696577426f783d22302030203335302033353060408201527f223e000000000000000000000000000000000000000000000000000000000000606082015250565b60006149376062836142c9565b91506149428261488f565b606282019050919050565b7f3c7374796c653e2e62617365207b2066696c6c3a2077686974653b20666f6e7460008201527f2d66616d696c793a2073657269663b20666f6e742d73697a653a20313470783b60208201527f207d3c2f7374796c653e00000000000000000000000000000000000000000000604082015250565b60006149cf604a836142c9565b91506149da8261494d565b604a82019050919050565b7f3c726563742077696474683d223130302522206865696768743d22313030252260008201527f2066696c6c3d22626c61636b22202f3e00000000000000000000000000000000602082015250565b6000614a416030836142c9565b9150614a4c826149e5565b603082019050919050565b7f3c7465787420783d223530252220793d223430252220636c6173733d2262617360008201527f652220646f6d696e616e742d626173656c696e653d226d6964646c652220746560208201527f78742d616e63686f723d226d6964646c65223e00000000000000000000000000604082015250565b6000614ad96053836142c9565b9150614ae482614a57565b605382019050919050565b7f41746f6d69632033377800000000000000000000000000000000000000000000600082015250565b6000614b25600a836142c9565b9150614b3082614aef565b600a82019050919050565b7f3c2f746578743e00000000000000000000000000000000000000000000000000600082015250565b6000614b716007836142c9565b9150614b7c82614b3b565b600782019050919050565b7f3c7465787420783d223530252220793d223530252220636c6173733d2262617360008201527f652220646f6d696e616e742d626173656c696e653d226d6964646c652220746560208201527f78742d616e63686f723d226d6964646c65223e00000000000000000000000000604082015250565b6000614c096053836142c9565b9150614c1482614b87565b605382019050919050565b7f4461793a20000000000000000000000000000000000000000000000000000000600082015250565b6000614c556005836142c9565b9150614c6082614c1f565b600582019050919050565b7f3c2f7376673e0000000000000000000000000000000000000000000000000000600082015250565b6000614ca16006836142c9565b9150614cac82614c6b565b600682019050919050565b6000614cc28261492a565b9150614ccd826149c2565b9150614cd882614a34565b9150614ce382614acc565b9150614cee82614b18565b9150614cf982614b64565b9150614d0482614bfc565b9150614d0f82614c48565b9150614d1b828461436c565b9150614d2682614b64565b9150614d3182614c94565b915081905092915050565b7f646174613a696d6167652f7376672b786d6c3b6261736536342c000000000000600082015250565b6000614d72601a836142c9565b9150614d7d82614d3c565b601a82019050919050565b6000614d9382614d65565b9150614d9f828461436c565b915081905092915050565b7f4552433732313a2061646472657373207a65726f206973206e6f74206120766160008201527f6c6964206f776e65720000000000000000000000000000000000000000000000602082015250565b6000614e066029836132b6565b9150614e1182614daa565b604082019050919050565b60006020820190508181036000830152614e3581614df9565b9050919050565b7f4552433732313a207472616e736665722066726f6d20696e636f72726563742060008201527f6f776e6572000000000000000000000000000000000000000000000000000000602082015250565b6000614e986025836132b6565b9150614ea382614e3c565b604082019050919050565b60006020820190508181036000830152614ec781614e8b565b9050919050565b7f4552433732313a207472616e7366657220746f20746865207a65726f2061646460008201527f7265737300000000000000000000000000000000000000000000000000000000602082015250565b6000614f2a6024836132b6565b9150614f3582614ece565b604082019050919050565b60006020820190508181036000830152614f5981614f1d565b9050919050565b7f45524337323155524953746f726167653a2055524920736574206f66206e6f6e60008201527f6578697374656e7420746f6b656e000000000000000000000000000000000000602082015250565b6000614fbc602e836132b6565b9150614fc782614f60565b604082019050919050565b60006020820190508181036000830152614feb81614faf565b9050919050565b7f4e487b7100000000000000000000000000000000000000000000000000000000600052601260045260246000fd5b600061502c8261335d565b91506150378361335d565b92508261504757615046614ff2565b5b828204905092915050565b600061505d8261335d565b91506150688361335d565b92508282026150768161335d565b9150828204841483151761508d5761508c61411c565b5b5092915050565b7f4552433732313a20617070726f766520746f2063616c6c657200000000000000600082015250565b60006150ca6019836132b6565b91506150d582615094565b602082019050919050565b600060208201905081810360008301526150f9816150bd565b9050919050565b7f4552433732313a207472616e7366657220746f206e6f6e20455243373231526560008201527f63656976657220696d706c656d656e7465720000000000000000000000000000602082015250565b600061515c6032836132b6565b915061516782615100565b604082019050919050565b6000602082019050818103600083015261518b8161514f565b9050919050565b600061519e828561436c565b91506151aa828461436c565b91508190509392505050565b600081519050919050565b600082825260208201905092915050565b60006151dd826151b6565b6151e781856151c1565b93506151f78185602086016132c7565b615200816132f1565b840191505092915050565b600060808201905061522060008301876133f2565b61522d60208301866133f2565b61523a6040830185613488565b818103606083015261524c81846151d2565b905095945050505050565b6000815190506152668161321c565b92915050565b600060208284031215615282576152816131e6565b5b600061529084828501615257565b91505092915050565b7f455243373231456e756d657261626c653a20636f6e736563757469766520747260008201527f616e7366657273206e6f7420737570706f727465640000000000000000000000602082015250565b60006152f56035836132b6565b915061530082615299565b604082019050919050565b60006020820190508181036000830152615324816152e8565b9050919050565b7f4552433732313a206d696e7420746f20746865207a65726f2061646472657373600082015250565b60006153616020836132b6565b915061536c8261532b565b602082019050919050565b6000602082019050818103600083015261539081615354565b9050919050565b7f4552433732313a20746f6b656e20616c7265616479206d696e74656400000000600082015250565b60006153cd601c836132b6565b91506153d882615397565b602082019050919050565b600060208201905081810360008301526153fc816153c0565b9050919050565b600061540e8261335d565b91506154198361335d565b92508282039050818111156154315761543061411c565b5b92915050565b7f4e487b7100000000000000000000000000000000000000000000000000000000600052603160045260246000fdfe4142434445464748494a4b4c4d4e4f505152535455565758595a6162636465666768696a6b6c6d6e6f707172737475767778797a303132333435363738392b2fa2646970667358221220d9f9b4c9240090edeaf7830239e847e7a79d267f3cffb5da774aa3d34d1615bb64736f6c63430008110033",
  "linkReferences": {},
  "deployedLinkReferences": {}
}