{
  "_format": "hh-sol-artifact-1",
  "contractName": "Atomic38x",
  "sourceName": "contracts/Atomic38x.sol",
  "abi": [
    {
      "inputs": [],
      "stateMutability": "nonpayable",
      "type": "constructor"
    },
    {
      "anonymous": false,
      "inputs": [
        {
          "indexed": true,
          "internalType": "address",
          "name": "owner",
          "type": "address"
        },
        {
          "indexed": true,
          "internalType": "address",
          "name": "approved",
          "type": "address"
        },
        {
          "indexed": true,
          "internalType": "uint256",
          "name": "tokenId",
          "type": "uint256"
        }
      ],
      "name": "Approval",
      "type": "event"
    },
    {
      "anonymous": false,
      "inputs": [
        {
          "indexed": true,
          "internalType": "address",
          "name": "owner",
          "type": "address"
        },
        {
          "indexed": true,
          "internalType": "address",
          "name": "operator",
          "type": "address"
        },
        {
          "indexed": false,
          "internalType": "bool",
          "name": "approved",
          "type": "bool"
        }
      ],
      "name": "ApprovalForAll",
      "type": "event"
    },
    {
      "anonymous": false,
      "inputs": [
        {
          "indexed": true,
          "internalType": "address",
          "name": "from",
          "type": "address"
        },
        {
          "indexed": true,
          "internalType": "address",
          "name": "to",
          "type": "address"
        },
        {
          "indexed": true,
          "internalType": "uint256",
          "name": "tokenId",
          "type": "uint256"
        }
      ],
      "name": "Transfer",
      "type": "event"
    },
    {
      "inputs": [
        {
          "internalType": "address",
          "name": "to",
          "type": "address"
        },
        {
          "internalType": "uint256",
          "name": "tokenId",
          "type": "uint256"
        }
      ],
      "name": "approve",
      "outputs": [],
      "stateMutability": "nonpayable",
      "type": "function"
    },
    {
      "inputs": [
        {
          "internalType": "address",
          "name": "owner",
          "type": "address"
        }
      ],
      "name": "balanceOf",
      "outputs": [
        {
          "internalType": "uint256",
          "name": "",
          "type": "uint256"
        }
      ],
      "stateMutability": "view",
      "type": "function"
    },
    {
      "inputs": [
        {
          "internalType": "string",
          "name": "s1",
          "type": "string"
        },
        {
          "internalType": "string",
          "name": "s2",
          "type": "string"
        }
      ],
      "name": "compareStrings",
      "outputs": [
        {
          "internalType": "bool",
          "name": "",
          "type": "bool"
        }
      ],
      "stateMutability": "pure",
      "type": "function"
    },
    {
      "inputs": [
        {
          "internalType": "string",
          "name": "goal",
          "type": "string"
        }
      ],
      "name": "createItem",
      "outputs": [],
      "stateMutability": "nonpayable",
      "type": "function"
    },
    {
      "inputs": [
        {
          "internalType": "uint256",
          "name": "tokenId",
          "type": "uint256"
        }
      ],
      "name": "generateSVG",
      "outputs": [
        {
          "internalType": "string",
          "name": "",
          "type": "string"
        }
      ],
      "stateMutability": "view",
      "type": "function"
    },
    {
      "inputs": [
        {
          "internalType": "uint256",
          "name": "tokenId",
          "type": "uint256"
        }
      ],
      "name": "getApproved",
      "outputs": [
        {
          "internalType": "address",
          "name": "",
          "type": "address"
        }
      ],
      "stateMutability": "view",
      "type": "function"
    },
    {
      "inputs": [
        {
          "internalType": "uint256",
          "name": "tokenId",
          "type": "uint256"
        }
      ],
      "name": "getGoal",
      "outputs": [
        {
          "internalType": "string",
          "name": "",
          "type": "string"
        }
      ],
      "stateMutability": "view",
      "type": "function"
    },
    {
      "inputs": [
        {
          "internalType": "uint256",
          "name": "tokenId",
          "type": "uint256"
        }
      ],
      "name": "getLevel",
      "outputs": [
        {
          "internalType": "string",
          "name": "",
          "type": "string"
        }
      ],
      "stateMutability": "view",
      "type": "function"
    },
    {
      "inputs": [
        {
          "internalType": "uint256",
          "name": "tokenId",
          "type": "uint256"
        }
      ],
      "name": "getTokenURI",
      "outputs": [
        {
          "internalType": "string",
          "name": "",
          "type": "string"
        }
      ],
      "stateMutability": "view",
      "type": "function"
    },
    {
      "inputs": [
        {
          "internalType": "uint256",
          "name": "tokenId",
          "type": "uint256"
        }
      ],
      "name": "giveUp",
      "outputs": [],
      "stateMutability": "payable",
      "type": "function"
    },
    {
      "inputs": [
        {
          "internalType": "uint256",
          "name": "",
          "type": "uint256"
        }
      ],
      "name": "habits",
      "outputs": [
        {
          "internalType": "uint256",
          "name": "level",
          "type": "uint256"
        },
        {
          "internalType": "uint256",
          "name": "lastTrainedTime",
          "type": "uint256"
        },
        {
          "internalType": "string",
          "name": "goal",
          "type": "string"
        }
      ],
      "stateMutability": "view",
      "type": "function"
    },
    {
      "inputs": [
        {
          "internalType": "address",
          "name": "owner",
          "type": "address"
        },
        {
          "internalType": "address",
          "name": "operator",
          "type": "address"
        }
      ],
      "name": "isApprovedForAll",
      "outputs": [
        {
          "internalType": "bool",
          "name": "",
          "type": "bool"
        }
      ],
      "stateMutability": "view",
      "type": "function"
    },
    {
      "inputs": [],
      "name": "name",
      "outputs": [
        {
          "internalType": "string",
          "name": "",
          "type": "string"
        }
      ],
      "stateMutability": "view",
      "type": "function"
    },
    {
      "inputs": [],
      "name": "owner",
      "outputs": [
        {
          "internalType": "address",
          "name": "",
          "type": "address"
        }
      ],
      "stateMutability": "view",
      "type": "function"
    },
    {
      "inputs": [
        {
          "internalType": "uint256",
          "name": "tokenId",
          "type": "uint256"
        }
      ],
      "name": "ownerOf",
      "outputs": [
        {
          "internalType": "address",
          "name": "",
          "type": "address"
        }
      ],
      "stateMutability": "view",
      "type": "function"
    },
    {
      "inputs": [
        {
          "internalType": "address",
          "name": "from",
          "type": "address"
        },
        {
          "internalType": "address",
          "name": "to",
          "type": "address"
        },
        {
          "internalType": "uint256",
          "name": "tokenId",
          "type": "uint256"
        }
      ],
      "name": "safeTransferFrom",
      "outputs": [],
      "stateMutability": "nonpayable",
      "type": "function"
    },
    {
      "inputs": [
        {
          "internalType": "address",
          "name": "from",
          "type": "address"
        },
        {
          "internalType": "address",
          "name": "to",
          "type": "address"
        },
        {
          "internalType": "uint256",
          "name": "tokenId",
          "type": "uint256"
        },
        {
          "internalType": "bytes",
          "name": "data",
          "type": "bytes"
        }
      ],
      "name": "safeTransferFrom",
      "outputs": [],
      "stateMutability": "nonpayable",
      "type": "function"
    },
    {
      "inputs": [
        {
          "internalType": "address",
          "name": "operator",
          "type": "address"
        },
        {
          "internalType": "bool",
          "name": "approved",
          "type": "bool"
        }
      ],
      "name": "setApprovalForAll",
      "outputs": [],
      "stateMutability": "nonpayable",
      "type": "function"
    },
    {
      "inputs": [
        {
          "internalType": "bytes4",
          "name": "interfaceId",
          "type": "bytes4"
        }
      ],
      "name": "supportsInterface",
      "outputs": [
        {
          "internalType": "bool",
          "name": "",
          "type": "bool"
        }
      ],
      "stateMutability": "view",
      "type": "function"
    },
    {
      "inputs": [],
      "name": "symbol",
      "outputs": [
        {
          "internalType": "string",
          "name": "",
          "type": "string"
        }
      ],
      "stateMutability": "view",
      "type": "function"
    },
    {
      "inputs": [
        {
          "internalType": "uint256",
          "name": "index",
          "type": "uint256"
        }
      ],
      "name": "tokenByIndex",
      "outputs": [
        {
          "internalType": "uint256",
          "name": "",
          "type": "uint256"
        }
      ],
      "stateMutability": "view",
      "type": "function"
    },
    {
      "inputs": [
        {
          "internalType": "address",
          "name": "owner",
          "type": "address"
        },
        {
          "internalType": "uint256",
          "name": "index",
          "type": "uint256"
        }
      ],
      "name": "tokenOfOwnerByIndex",
      "outputs": [
        {
          "internalType": "uint256",
          "name": "",
          "type": "uint256"
        }
      ],
      "stateMutability": "view",
      "type": "function"
    },
    {
      "inputs": [
        {
          "internalType": "uint256",
          "name": "tokenId",
          "type": "uint256"
        }
      ],
      "name": "tokenURI",
      "outputs": [
        {
          "internalType": "string",
          "name": "",
          "type": "string"
        }
      ],
      "stateMutability": "view",
      "type": "function"
    },
    {
      "inputs": [],
      "name": "totalSupply",
      "outputs": [
        {
          "internalType": "uint256",
          "name": "",
          "type": "uint256"
        }
      ],
      "stateMutability": "view",
      "type": "function"
    },
    {
      "inputs": [
        {
          "internalType": "uint256",
          "name": "tokenId",
          "type": "uint256"
        }
      ],
      "name": "train",
      "outputs": [],
      "stateMutability": "nonpayable",
      "type": "function"
    },
    {
      "inputs": [
        {
          "internalType": "address",
          "name": "from",
          "type": "address"
        },
        {
          "internalType": "address",
          "name": "to",
          "type": "address"
        },
        {
          "internalType": "uint256",
          "name": "tokenId",
          "type": "uint256"
        }
      ],
      "name": "transferFrom",
      "outputs": [],
      "stateMutability": "nonpayable",
      "type": "function"
    }
  ],
  "bytecode": "0x60806040523480156200001157600080fd5b506040518060400160405280601081526020017f41746f6d696320486162697420333878000000000000000000000000000000008152506040518060400160405280600581526020017f4148333878000000000000000000000000000000000000000000000000000000815250816000908051906020019062000096929190620000f9565b508060019080519060200190620000af929190620000f9565b50505033600c60006101000a81548173ffffffffffffffffffffffffffffffffffffffff021916908373ffffffffffffffffffffffffffffffffffffffff1602179055506200020e565b8280546200010790620001d8565b90600052602060002090601f0160209004810192826200012b576000855562000177565b82601f106200014657805160ff191683800117855562000177565b8280016001018555821562000177579182015b828111156200017657825182559160200191906001019062000159565b5b5090506200018691906200018a565b5090565b5b80821115620001a55760008160009055506001016200018b565b5090565b7f4e487b7100000000000000000000000000000000000000000000000000000000600052602260045260246000fd5b60006002820490506001821680620001f157607f821691505b60208210811415620002085762000207620001a9565b5b50919050565b615ab6806200021e6000396000f3fe6080604052600436106101815760003560e01c80636352211e116100d15780639f1f17ea1161008a578063bed34bba11610064578063bed34bba146105d1578063c87b56dd1461060e578063df6ed6cb1461064b578063e985e9c51461068857610181565b80639f1f17ea14610540578063a22cb4651461057f578063b88d4fde146105a857610181565b80636352211e146103f65780636dcee4ca1461043357806370a082311461047057806386481d40146104ad5780638da5cb5b146104ea57806395d89b411461051557610181565b806323b872dd1161013e5780633bb3a24d116101185780633bb3a24d1461032a5780633d54eebb1461036757806342842e0e146103905780634f6ccce7146103b957610181565b806323b872dd1461029b5780632f745c59146102c4578063368004ed1461030157610181565b806301ffc9a71461018657806306fdde03146101c3578063081812fc146101ee578063095ea7b31461022b57806318160ddd1461025457806322671fe91461027f575b600080fd5b34801561019257600080fd5b506101ad60048036038101906101a8919061339f565b6106c5565b6040516101ba91906133e7565b60405180910390f35b3480156101cf57600080fd5b506101d86106d7565b6040516101e5919061349b565b60405180910390f35b3480156101fa57600080fd5b50610215600480360381019061021091906134f3565b610769565b6040516102229190613561565b60405180910390f35b34801561023757600080fd5b50610252600480360381019061024d91906135a8565b6107af565b005b34801561026057600080fd5b506102696108c7565b60405161027691906135f7565b60405180910390f35b610299600480360381019061029491906134f3565b6108d4565b005b3480156102a757600080fd5b506102c260048036038101906102bd9190613612565b610ac4565b005b3480156102d057600080fd5b506102eb60048036038101906102e691906135a8565b610b24565b6040516102f891906135f7565b60405180910390f35b34801561030d57600080fd5b50610328600480360381019061032391906134f3565b610bc9565b005b34801561033657600080fd5b50610351600480360381019061034c91906134f3565b610d61565b60405161035e919061349b565b60405180910390f35b34801561037357600080fd5b5061038e600480360381019061038991906136ca565b610dc9565b005b34801561039c57600080fd5b506103b760048036038101906103b29190613612565b610f36565b005b3480156103c557600080fd5b506103e060048036038101906103db91906134f3565b610f56565b6040516103ed91906135f7565b60405180910390f35b34801561040257600080fd5b5061041d600480360381019061041891906134f3565b610fc7565b60405161042a9190613561565b60405180910390f35b34801561043f57600080fd5b5061045a600480360381019061045591906134f3565b61104e565b604051610467919061349b565b60405180910390f35b34801561047c57600080fd5b5061049760048036038101906104929190613717565b6110c8565b6040516104a491906135f7565b60405180910390f35b3480156104b957600080fd5b506104d460048036038101906104cf91906134f3565b611180565b6040516104e1919061349b565b60405180910390f35b3480156104f657600080fd5b506104ff61125f565b60405161050c9190613561565b60405180910390f35b34801561052157600080fd5b5061052a611285565b604051610537919061349b565b60405180910390f35b34801561054c57600080fd5b50610567600480360381019061056291906134f3565b611317565b60405161057693929190613744565b60405180910390f35b34801561058b57600080fd5b506105a660048036038101906105a191906137ae565b6113c9565b005b3480156105b457600080fd5b506105cf60048036038101906105ca919061391e565b6113df565b005b3480156105dd57600080fd5b506105f860048036038101906105f39190613a42565b611441565b60405161060591906133e7565b60405180910390f35b34801561061a57600080fd5b50610635600480360381019061063091906134f3565b61145c565b604051610642919061349b565b60405180910390f35b34801561065757600080fd5b50610672600480360381019061066d91906134f3565b61146e565b60405161067f919061349b565b60405180910390f35b34801561069457600080fd5b506106af60048036038101906106aa9190613aba565b611545565b6040516106bc91906133e7565b60405180910390f35b60006106d0826115d9565b9050919050565b6060600080546106e690613b29565b80601f016020809104026020016040519081016040528092919081815260200182805461071290613b29565b801561075f5780601f106107345761010080835404028352916020019161075f565b820191906000526020600020905b81548152906001019060200180831161074257829003601f168201915b5050505050905090565b600061077482611653565b6004600083815260200190815260200160002060009054906101000a900473ffffffffffffffffffffffffffffffffffffffff169050919050565b60006107ba82610fc7565b90508073ffffffffffffffffffffffffffffffffffffffff168373ffffffffffffffffffffffffffffffffffffffff16141561082b576040517f08c379a000000000000000000000000000000000000000000000000000000000815260040161082290613bcd565b60405180910390fd5b8073ffffffffffffffffffffffffffffffffffffffff1661084a61169e565b73ffffffffffffffffffffffffffffffffffffffff16148061087957506108788161087361169e565b611545565b5b6108b8576040517f08c379a00000000000000000000000000000000000000000000000000000000081526004016108af90613c5f565b60405180910390fd5b6108c283836116a6565b505050565b6000600880549050905090565b3373ffffffffffffffffffffffffffffffffffffffff166108f482610fc7565b73ffffffffffffffffffffffffffffffffffffffff161461094a576040517f08c379a000000000000000000000000000000000000000000000000000000000815260040161094190613ccb565b60405180910390fd5b61099161095682611180565b6040518060400160405280600181526020017f3000000000000000000000000000000000000000000000000000000000000000815250611441565b6109d0576040517f08c379a00000000000000000000000000000000000000000000000000000000081526004016109c790613d37565b60405180910390fd5b66038d7ea4c680003414610a19576040517f08c379a0000000000000000000000000000000000000000000000000000000008152600401610a1090613da3565b60405180910390fd5b600c60009054906101000a900473ffffffffffffffffffffffffffffffffffffffff1673ffffffffffffffffffffffffffffffffffffffff166108fc349081150290604051600060405180830381858888f19350505050158015610a81573d6000803e3d6000fd5b50610a8b8161175f565b600d60008281526020019081526020016000206000808201600090556001820160009055600282016000610abf9190613250565b505050565b610ad5610acf61169e565b8261176b565b610b14576040517f08c379a0000000000000000000000000000000000000000000000000000000008152600401610b0b90613e35565b60405180910390fd5b610b1f838383611800565b505050565b6000610b2f836110c8565b8210610b70576040517f08c379a0000000000000000000000000000000000000000000000000000000008152600401610b6790613ec7565b60405180910390fd5b600660008473ffffffffffffffffffffffffffffffffffffffff1673ffffffffffffffffffffffffffffffffffffffff168152602001908152602001600020600083815260200190815260200160002054905092915050565b610bd281611afa565b610c11576040517f08c379a0000000000000000000000000000000000000000000000000000000008152600401610c0890613f33565b60405180910390fd5b3373ffffffffffffffffffffffffffffffffffffffff16610c3182610fc7565b73ffffffffffffffffffffffffffffffffffffffff1614610c87576040517f08c379a0000000000000000000000000000000000000000000000000000000008152600401610c7e90613f9f565b60405180910390fd5b4262015180610c9583611b3b565b610c9f9190613fee565b1115610ce0576040517f08c379a0000000000000000000000000000000000000000000000000000000008152600401610cd7906140b6565b60405180910390fd5b4262278d00610cee83611b3b565b610cf89190613fee565b1015610d39576040517f08c379a0000000000000000000000000000000000000000000000000000000008152600401610d309061416e565b60405180910390fd5b610d438142611c11565b610d4c81611d30565b610d5e81610d5983610d61565b611e5e565b50565b60606000610d6e83611ed2565b610d778461104e565b604051602001610d88929190614404565b6040516020818303038152906040529050610da281611faa565b604051602001610db291906144c1565b604051602081830303815290604052915050919050565b60008282905011610e0f576040517f08c379a0000000000000000000000000000000000000000000000000000000008152600401610e069061452f565b60405180910390fd5b6101188282905010610e56576040517f08c379a0000000000000000000000000000000000000000000000000000000008152600401610e4d9061459b565b60405180910390fd5b610e60600b61210e565b6000610e6c600b612124565b905060405180606001604052806000815260200142815260200184848080601f016020809104026020016040519081016040528093929190818152602001838380828437600081840152601f19601f82011690508083019250505050505050815250600d600083815260200190815260200160002060008201518160000155602082015181600101556040820151816002019080519060200190610f11929190613290565b50905050610f1f3382612132565b610f3181610f2c83610d61565b611e5e565b505050565b610f51838383604051806020016040528060008152506113df565b505050565b6000610f606108c7565b8210610fa1576040517f08c379a0000000000000000000000000000000000000000000000000000000008152600401610f989061462d565b60405180910390fd5b60088281548110610fb557610fb461464d565b5b90600052602060002001549050919050565b600080610fd383612150565b9050600073ffffffffffffffffffffffffffffffffffffffff168173ffffffffffffffffffffffffffffffffffffffff161415611045576040517f08c379a000000000000000000000000000000000000000000000000000000000815260040161103c906146c8565b60405180910390fd5b80915050919050565b6060600061105a61218d565b6110626121db565b61106b85611180565b6110748661146e565b6040516020016110879493929190615160565b60405160208183030381529060405290506110a181611faa565b6040516020016110b19190615284565b604051602081830303815290604052915050919050565b60008073ffffffffffffffffffffffffffffffffffffffff168273ffffffffffffffffffffffffffffffffffffffff161415611139576040517f08c379a000000000000000000000000000000000000000000000000000000000815260040161113090615318565b60405180910390fd5b600360008373ffffffffffffffffffffffffffffffffffffffff1673ffffffffffffffffffffffffffffffffffffffff168152602001908152602001600020549050919050565b60606000600d600084815260200190815260200160002060405180606001604052908160008201548152602001600182015481526020016002820180546111c690613b29565b80601f01602080910402602001604051908101604052809291908181526020018280546111f290613b29565b801561123f5780601f106112145761010080835404028352916020019161123f565b820191906000526020600020905b81548152906001019060200180831161122257829003601f168201915b50505050508152505090506112578160000151611ed2565b915050919050565b600c60009054906101000a900473ffffffffffffffffffffffffffffffffffffffff1681565b60606001805461129490613b29565b80601f01602080910402602001604051908101604052809291908181526020018280546112c090613b29565b801561130d5780601f106112e25761010080835404028352916020019161130d565b820191906000526020600020905b8154815290600101906020018083116112f057829003601f168201915b5050505050905090565b600d60205280600052604060002060009150905080600001549080600101549080600201805461134690613b29565b80601f016020809104026020016040519081016040528092919081815260200182805461137290613b29565b80156113bf5780601f10611394576101008083540402835291602001916113bf565b820191906000526020600020905b8154815290600101906020018083116113a257829003601f168201915b5050505050905083565b6113db6113d461169e565b83836121fe565b5050565b6113f06113ea61169e565b8361176b565b61142f576040517f08c379a000000000000000000000000000000000000000000000000000000000815260040161142690613e35565b60405180910390fd5b61143b8484848461236b565b50505050565b60008180519060200120838051906020012014905092915050565b6060611467826123c7565b9050919050565b60606000600d600084815260200190815260200160002060405180606001604052908160008201548152602001600182015481526020016002820180546114b490613b29565b80601f01602080910402602001604051908101604052809291908181526020018280546114e090613b29565b801561152d5780601f106115025761010080835404028352916020019161152d565b820191906000526020600020905b81548152906001019060200180831161151057829003601f168201915b50505050508152505090508060400151915050919050565b6000600560008473ffffffffffffffffffffffffffffffffffffffff1673ffffffffffffffffffffffffffffffffffffffff16815260200190815260200160002060008373ffffffffffffffffffffffffffffffffffffffff1673ffffffffffffffffffffffffffffffffffffffff16815260200190815260200160002060009054906101000a900460ff16905092915050565b60007f780e9d63000000000000000000000000000000000000000000000000000000007bffffffffffffffffffffffffffffffffffffffffffffffffffffffff1916827bffffffffffffffffffffffffffffffffffffffffffffffffffffffff1916148061164c575061164b826124da565b5b9050919050565b61165c81611afa565b61169b576040517f08c379a0000000000000000000000000000000000000000000000000000000008152600401611692906146c8565b60405180910390fd5b50565b600033905090565b816004600083815260200190815260200160002060006101000a81548173ffffffffffffffffffffffffffffffffffffffff021916908373ffffffffffffffffffffffffffffffffffffffff160217905550808273ffffffffffffffffffffffffffffffffffffffff1661171983610fc7565b73ffffffffffffffffffffffffffffffffffffffff167f8c5be1e5ebec7d5bd14f71427d1e84f3dd0314c0f7b2291e5b200ac8c7c3b92560405160405180910390a45050565b611768816125bc565b50565b60008061177783610fc7565b90508073ffffffffffffffffffffffffffffffffffffffff168473ffffffffffffffffffffffffffffffffffffffff1614806117b957506117b88185611545565b5b806117f757508373ffffffffffffffffffffffffffffffffffffffff166117df84610769565b73ffffffffffffffffffffffffffffffffffffffff16145b91505092915050565b8273ffffffffffffffffffffffffffffffffffffffff1661182082610fc7565b73ffffffffffffffffffffffffffffffffffffffff1614611876576040517f08c379a000000000000000000000000000000000000000000000000000000000815260040161186d906153aa565b60405180910390fd5b600073ffffffffffffffffffffffffffffffffffffffff168273ffffffffffffffffffffffffffffffffffffffff1614156118e6576040517f08c379a00000000000000000000000000000000000000000000000000000000081526004016118dd9061543c565b60405180910390fd5b6118f3838383600161260f565b8273ffffffffffffffffffffffffffffffffffffffff1661191382610fc7565b73ffffffffffffffffffffffffffffffffffffffff1614611969576040517f08c379a0000000000000000000000000000000000000000000000000000000008152600401611960906153aa565b60405180910390fd5b6004600082815260200190815260200160002060006101000a81549073ffffffffffffffffffffffffffffffffffffffff02191690556001600360008573ffffffffffffffffffffffffffffffffffffffff1673ffffffffffffffffffffffffffffffffffffffff168152602001908152602001600020600082825403925050819055506001600360008473ffffffffffffffffffffffffffffffffffffffff1673ffffffffffffffffffffffffffffffffffffffff16815260200190815260200160002060008282540192505081905550816002600083815260200190815260200160002060006101000a81548173ffffffffffffffffffffffffffffffffffffffff021916908373ffffffffffffffffffffffffffffffffffffffff160217905550808273ffffffffffffffffffffffffffffffffffffffff168473ffffffffffffffffffffffffffffffffffffffff167fddf252ad1be2c89b69c2b068fc378daa952ba7f163c4a11628f55a4df523b3ef60405160405180910390a4611af58383836001612621565b505050565b60008073ffffffffffffffffffffffffffffffffffffffff16611b1c83612150565b73ffffffffffffffffffffffffffffffffffffffff1614159050919050565b600080600d60008481526020019081526020016000206040518060600160405290816000820154815260200160018201548152602001600282018054611b8090613b29565b80601f0160208091040260200160405190810160405280929190818152602001828054611bac90613b29565b8015611bf95780601f10611bce57610100808354040283529160200191611bf9565b820191906000526020600020905b815481529060010190602001808311611bdc57829003601f168201915b50505050508152505090508060200151915050919050565b6000600d60008481526020019081526020016000206040518060600160405290816000820154815260200160018201548152602001600282018054611c5590613b29565b80601f0160208091040260200160405190810160405280929190818152602001828054611c8190613b29565b8015611cce5780601f10611ca357610100808354040283529160200191611cce565b820191906000526020600020905b815481529060010190602001808311611cb157829003601f168201915b50505050508152505090508181602001818152505080600d600085815260200190815260200160002060008201518160000155602082015181600101556040820151816002019080519060200190611d27929190613290565b50905050505050565b6000600d60008381526020019081526020016000206040518060600160405290816000820154815260200160018201548152602001600282018054611d7490613b29565b80601f0160208091040260200160405190810160405280929190818152602001828054611da090613b29565b8015611ded5780601f10611dc257610100808354040283529160200191611ded565b820191906000526020600020905b815481529060010190602001808311611dd057829003601f168201915b505050505081525050905060018160000151611e099190613fee565b81600001818152505080600d600084815260200190815260200160002060008201518160000155602082015181600101556040820151816002019080519060200190611e56929190613290565b509050505050565b611e6782611afa565b611ea6576040517f08c379a0000000000000000000000000000000000000000000000000000000008152600401611e9d906154ce565b60405180910390fd5b80600a60008481526020019081526020016000209080519060200190611ecd929190613290565b505050565b606060006001611ee184612627565b01905060008167ffffffffffffffff811115611f0057611eff6137f3565b5b6040519080825280601f01601f191660200182016040528015611f325781602001600182028036833780820191505090505b509050600082602001820190505b600115611f9f578080600190039150507f3031323334353637383961626364656600000000000000000000000000000000600a86061a8153600a8581611f8957611f886154ee565b5b0494506000851415611f9a57611f9f565b611f40565b819350505050919050565b6060600082511415611fcd57604051806020016040528060008152509050612109565b6000604051806060016040528060408152602001615a416040913990506000600360028551611ffc9190613fee565b612006919061551d565b6004612012919061554e565b67ffffffffffffffff81111561202b5761202a6137f3565b5b6040519080825280601f01601f19166020018201604052801561205d5781602001600182028036833780820191505090505b509050600182016020820185865187015b808210156120c9576003820191508151603f8160121c168501518453600184019350603f81600c1c168501518453600184019350603f8160061c168501518453600184019350603f811685015184536001840193505061206e565b50506003865106600181146120e557600281146120f857612100565b603d6001830353603d6002830353612100565b603d60018303535b50505080925050505b919050565b6001816000016000828254019250508190555050565b600081600001549050919050565b61214c82826040518060200160405280600081525061277a565b5050565b60006002600083815260200190815260200160002060009054906101000a900473ffffffffffffffffffffffffffffffffffffffff169050919050565b6060600061016842336040516020016121a7929190615611565b6040516020818303038152906040528051906020012060001c6121ca919061563d565b90506121d581611ed2565b91505090565b60606000610168426121ed919061563d565b90506121f881611ed2565b91505090565b8173ffffffffffffffffffffffffffffffffffffffff168373ffffffffffffffffffffffffffffffffffffffff16141561226d576040517f08c379a0000000000000000000000000000000000000000000000000000000008152600401612264906156ba565b60405180910390fd5b80600560008573ffffffffffffffffffffffffffffffffffffffff1673ffffffffffffffffffffffffffffffffffffffff16815260200190815260200160002060008473ffffffffffffffffffffffffffffffffffffffff1673ffffffffffffffffffffffffffffffffffffffff16815260200190815260200160002060006101000a81548160ff0219169083151502179055508173ffffffffffffffffffffffffffffffffffffffff168373ffffffffffffffffffffffffffffffffffffffff167f17307eab39ab6107e8899845ad3d59bd9653f200f220920489ca2b5937696c318360405161235e91906133e7565b60405180910390a3505050565b612376848484611800565b612382848484846127d5565b6123c1576040517f08c379a00000000000000000000000000000000000000000000000000000000081526004016123b89061574c565b60405180910390fd5b50505050565b60606123d282611653565b6000600a600084815260200190815260200160002080546123f290613b29565b80601f016020809104026020016040519081016040528092919081815260200182805461241e90613b29565b801561246b5780601f106124405761010080835404028352916020019161246b565b820191906000526020600020905b81548152906001019060200180831161244e57829003601f168201915b50505050509050600061247c61296c565b90506000815114156124925781925050506124d5565b6000825111156124c75780826040516020016124af92919061576c565b604051602081830303815290604052925050506124d5565b6124d084612983565b925050505b919050565b60007f80ac58cd000000000000000000000000000000000000000000000000000000007bffffffffffffffffffffffffffffffffffffffffffffffffffffffff1916827bffffffffffffffffffffffffffffffffffffffffffffffffffffffff191614806125a557507f5b5e139f000000000000000000000000000000000000000000000000000000007bffffffffffffffffffffffffffffffffffffffffffffffffffffffff1916827bffffffffffffffffffffffffffffffffffffffffffffffffffffffff1916145b806125b557506125b4826129eb565b5b9050919050565b6125c581612a55565b6000600a600083815260200190815260200160002080546125e590613b29565b90501461260c57600a6000828152602001908152602001600020600061260b9190613250565b5b50565b61261b84848484612ba3565b50505050565b50505050565b600080600090507a184f03e93ff9f4daa797ed6e38ed64bf6a1f0100000000000000008310612685577a184f03e93ff9f4daa797ed6e38ed64bf6a1f010000000000000000838161267b5761267a6154ee565b5b0492506040810190505b6d04ee2d6d415b85acef810000000083106126c2576d04ee2d6d415b85acef810000000083816126b8576126b76154ee565b5b0492506020810190505b662386f26fc1000083106126f157662386f26fc1000083816126e7576126e66154ee565b5b0492506010810190505b6305f5e100831061271a576305f5e10083816127105761270f6154ee565b5b0492506008810190505b612710831061273f576127108381612735576127346154ee565b5b0492506004810190505b606483106127625760648381612758576127576154ee565b5b0492506002810190505b600a8310612771576001810190505b80915050919050565b6127848383612d03565b61279160008484846127d5565b6127d0576040517f08c379a00000000000000000000000000000000000000000000000000000000081526004016127c79061574c565b60405180910390fd5b505050565b60006127f68473ffffffffffffffffffffffffffffffffffffffff16612f21565b1561295f578373ffffffffffffffffffffffffffffffffffffffff1663150b7a0261281f61169e565b8786866040518563ffffffff1660e01b815260040161284194939291906157e5565b602060405180830381600087803b15801561285b57600080fd5b505af192505050801561288c57506040513d601f19601f820116820180604052508101906128899190615846565b60015b61290f573d80600081146128bc576040519150601f19603f3d011682016040523d82523d6000602084013e6128c1565b606091505b50600081511415612907576040517f08c379a00000000000000000000000000000000000000000000000000000000081526004016128fe9061574c565b60405180910390fd5b805181602001fd5b63150b7a0260e01b7bffffffffffffffffffffffffffffffffffffffffffffffffffffffff1916817bffffffffffffffffffffffffffffffffffffffffffffffffffffffff191614915050612964565b600190505b949350505050565b606060405180602001604052806000815250905090565b606061298e82611653565b600061299861296c565b905060008151116129b857604051806020016040528060008152506129e3565b806129c284611ed2565b6040516020016129d392919061576c565b6040516020818303038152906040525b915050919050565b60007f01ffc9a7000000000000000000000000000000000000000000000000000000007bffffffffffffffffffffffffffffffffffffffffffffffffffffffff1916827bffffffffffffffffffffffffffffffffffffffffffffffffffffffff1916149050919050565b6000612a6082610fc7565b9050612a7081600084600161260f565b612a7982610fc7565b90506004600083815260200190815260200160002060006101000a81549073ffffffffffffffffffffffffffffffffffffffff02191690556001600360008373ffffffffffffffffffffffffffffffffffffffff1673ffffffffffffffffffffffffffffffffffffffff168152602001908152602001600020600082825403925050819055506002600083815260200190815260200160002060006101000a81549073ffffffffffffffffffffffffffffffffffffffff021916905581600073ffffffffffffffffffffffffffffffffffffffff168273ffffffffffffffffffffffffffffffffffffffff167fddf252ad1be2c89b69c2b068fc378daa952ba7f163c4a11628f55a4df523b3ef60405160405180910390a4612b9f816000846001612621565b5050565b612baf84848484612f44565b6001811115612bf3576040517f08c379a0000000000000000000000000000000000000000000000000000000008152600401612bea906158e5565b60405180910390fd5b6000829050600073ffffffffffffffffffffffffffffffffffffffff168573ffffffffffffffffffffffffffffffffffffffff161415612c3b57612c3681612f4a565b612c7a565b8373ffffffffffffffffffffffffffffffffffffffff168573ffffffffffffffffffffffffffffffffffffffff1614612c7957612c788582612f93565b5b5b600073ffffffffffffffffffffffffffffffffffffffff168473ffffffffffffffffffffffffffffffffffffffff161415612cbd57612cb881613100565b612cfc565b8473ffffffffffffffffffffffffffffffffffffffff168473ffffffffffffffffffffffffffffffffffffffff1614612cfb57612cfa84826131d1565b5b5b5050505050565b600073ffffffffffffffffffffffffffffffffffffffff168273ffffffffffffffffffffffffffffffffffffffff161415612d73576040517f08c379a0000000000000000000000000000000000000000000000000000000008152600401612d6a90615951565b60405180910390fd5b612d7c81611afa565b15612dbc576040517f08c379a0000000000000000000000000000000000000000000000000000000008152600401612db3906159bd565b60405180910390fd5b612dca60008383600161260f565b612dd381611afa565b15612e13576040517f08c379a0000000000000000000000000000000000000000000000000000000008152600401612e0a906159bd565b60405180910390fd5b6001600360008473ffffffffffffffffffffffffffffffffffffffff1673ffffffffffffffffffffffffffffffffffffffff16815260200190815260200160002060008282540192505081905550816002600083815260200190815260200160002060006101000a81548173ffffffffffffffffffffffffffffffffffffffff021916908373ffffffffffffffffffffffffffffffffffffffff160217905550808273ffffffffffffffffffffffffffffffffffffffff16600073ffffffffffffffffffffffffffffffffffffffff167fddf252ad1be2c89b69c2b068fc378daa952ba7f163c4a11628f55a4df523b3ef60405160405180910390a4612f1d600083836001612621565b5050565b6000808273ffffffffffffffffffffffffffffffffffffffff163b119050919050565b50505050565b6008805490506009600083815260200190815260200160002081905550600881908060018154018082558091505060019003906000526020600020016000909190919091505550565b60006001612fa0846110c8565b612faa91906159dd565b905060006007600084815260200190815260200160002054905081811461308f576000600660008673ffffffffffffffffffffffffffffffffffffffff1673ffffffffffffffffffffffffffffffffffffffff168152602001908152602001600020600084815260200190815260200160002054905080600660008773ffffffffffffffffffffffffffffffffffffffff1673ffffffffffffffffffffffffffffffffffffffff168152602001908152602001600020600084815260200190815260200160002081905550816007600083815260200190815260200160002081905550505b6007600084815260200190815260200160002060009055600660008573ffffffffffffffffffffffffffffffffffffffff1673ffffffffffffffffffffffffffffffffffffffff16815260200190815260200160002060008381526020019081526020016000206000905550505050565b6000600160088054905061311491906159dd565b90506000600960008481526020019081526020016000205490506000600883815481106131445761314361464d565b5b9060005260206000200154905080600883815481106131665761316561464d565b5b9060005260206000200181905550816009600083815260200190815260200160002081905550600960008581526020019081526020016000206000905560088054806131b5576131b4615a11565b5b6001900381819060005260206000200160009055905550505050565b60006131dc836110c8565b905081600660008573ffffffffffffffffffffffffffffffffffffffff1673ffffffffffffffffffffffffffffffffffffffff168152602001908152602001600020600083815260200190815260200160002081905550806007600084815260200190815260200160002081905550505050565b50805461325c90613b29565b6000825580601f1061326e575061328d565b601f01602090049060005260206000209081019061328c9190613316565b5b50565b82805461329c90613b29565b90600052602060002090601f0160209004810192826132be5760008555613305565b82601f106132d757805160ff1916838001178555613305565b82800160010185558215613305579182015b828111156133045782518255916020019190600101906132e9565b5b5090506133129190613316565b5090565b5b8082111561332f576000816000905550600101613317565b5090565b6000604051905090565b600080fd5b600080fd5b60007fffffffff0000000000000000000000000000000000000000000000000000000082169050919050565b61337c81613347565b811461338757600080fd5b50565b60008135905061339981613373565b92915050565b6000602082840312156133b5576133b461333d565b5b60006133c38482850161338a565b91505092915050565b60008115159050919050565b6133e1816133cc565b82525050565b60006020820190506133fc60008301846133d8565b92915050565b600081519050919050565b600082825260208201905092915050565b60005b8381101561343c578082015181840152602081019050613421565b8381111561344b576000848401525b50505050565b6000601f19601f8301169050919050565b600061346d82613402565b613477818561340d565b935061348781856020860161341e565b61349081613451565b840191505092915050565b600060208201905081810360008301526134b58184613462565b905092915050565b6000819050919050565b6134d0816134bd565b81146134db57600080fd5b50565b6000813590506134ed816134c7565b92915050565b6000602082840312156135095761350861333d565b5b6000613517848285016134de565b91505092915050565b600073ffffffffffffffffffffffffffffffffffffffff82169050919050565b600061354b82613520565b9050919050565b61355b81613540565b82525050565b60006020820190506135766000830184613552565b92915050565b61358581613540565b811461359057600080fd5b50565b6000813590506135a28161357c565b92915050565b600080604083850312156135bf576135be61333d565b5b60006135cd85828601613593565b92505060206135de858286016134de565b9150509250929050565b6135f1816134bd565b82525050565b600060208201905061360c60008301846135e8565b92915050565b60008060006060848603121561362b5761362a61333d565b5b600061363986828701613593565b935050602061364a86828701613593565b925050604061365b868287016134de565b9150509250925092565b600080fd5b600080fd5b600080fd5b60008083601f84011261368a57613689613665565b5b8235905067ffffffffffffffff8111156136a7576136a661366a565b5b6020830191508360018202830111156136c3576136c261366f565b5b9250929050565b600080602083850312156136e1576136e061333d565b5b600083013567ffffffffffffffff8111156136ff576136fe613342565b5b61370b85828601613674565b92509250509250929050565b60006020828403121561372d5761372c61333d565b5b600061373b84828501613593565b91505092915050565b600060608201905061375960008301866135e8565b61376660208301856135e8565b81810360408301526137788184613462565b9050949350505050565b61378b816133cc565b811461379657600080fd5b50565b6000813590506137a881613782565b92915050565b600080604083850312156137c5576137c461333d565b5b60006137d385828601613593565b92505060206137e485828601613799565b9150509250929050565b600080fd5b7f4e487b7100000000000000000000000000000000000000000000000000000000600052604160045260246000fd5b61382b82613451565b810181811067ffffffffffffffff8211171561384a576138496137f3565b5b80604052505050565b600061385d613333565b90506138698282613822565b919050565b600067ffffffffffffffff821115613889576138886137f3565b5b61389282613451565b9050602081019050919050565b82818337600083830152505050565b60006138c16138bc8461386e565b613853565b9050828152602081018484840111156138dd576138dc6137ee565b5b6138e884828561389f565b509392505050565b600082601f83011261390557613904613665565b5b81356139158482602086016138ae565b91505092915050565b600080600080608085870312156139385761393761333d565b5b600061394687828801613593565b945050602061395787828801613593565b9350506040613968878288016134de565b925050606085013567ffffffffffffffff81111561398957613988613342565b5b613995878288016138f0565b91505092959194509250565b600067ffffffffffffffff8211156139bc576139bb6137f3565b5b6139c582613451565b9050602081019050919050565b60006139e56139e0846139a1565b613853565b905082815260208101848484011115613a0157613a006137ee565b5b613a0c84828561389f565b509392505050565b600082601f830112613a2957613a28613665565b5b8135613a398482602086016139d2565b91505092915050565b60008060408385031215613a5957613a5861333d565b5b600083013567ffffffffffffffff811115613a7757613a76613342565b5b613a8385828601613a14565b925050602083013567ffffffffffffffff811115613aa457613aa3613342565b5b613ab085828601613a14565b9150509250929050565b60008060408385031215613ad157613ad061333d565b5b6000613adf85828601613593565b9250506020613af085828601613593565b9150509250929050565b7f4e487b7100000000000000000000000000000000000000000000000000000000600052602260045260246000fd5b60006002820490506001821680613b4157607f821691505b60208210811415613b5557613b54613afa565b5b50919050565b7f4552433732313a20617070726f76616c20746f2063757272656e74206f776e6560008201527f7200000000000000000000000000000000000000000000000000000000000000602082015250565b6000613bb760218361340d565b9150613bc282613b5b565b604082019050919050565b60006020820190508181036000830152613be681613baa565b9050919050565b7f4552433732313a20617070726f76652063616c6c6572206973206e6f7420746f60008201527f6b656e206f776e6572206f7220617070726f76656420666f7220616c6c000000602082015250565b6000613c49603d8361340d565b9150613c5482613bed565b604082019050919050565b60006020820190508181036000830152613c7881613c3c565b9050919050565b7f4f6e6c79206f776e65722063616e206769766520757000000000000000000000600082015250565b6000613cb560168361340d565b9150613cc082613c7f565b602082019050919050565b60006020820190508181036000830152613ce481613ca8565b9050919050565b7f53686f756c64206e6f742067697665207570206265666f726520737461727400600082015250565b6000613d21601f8361340d565b9150613d2c82613ceb565b602082019050919050565b60006020820190508181036000830152613d5081613d14565b9050919050565b7f4e65656420746f2070617920302e3030312045544820746f2067697665207570600082015250565b6000613d8d60208361340d565b9150613d9882613d57565b602082019050919050565b60006020820190508181036000830152613dbc81613d80565b9050919050565b7f4552433732313a2063616c6c6572206973206e6f7420746f6b656e206f776e6560008201527f72206f7220617070726f76656400000000000000000000000000000000000000602082015250565b6000613e1f602d8361340d565b9150613e2a82613dc3565b604082019050919050565b60006020820190508181036000830152613e4e81613e12565b9050919050565b7f455243373231456e756d657261626c653a206f776e657220696e646578206f7560008201527f74206f6620626f756e6473000000000000000000000000000000000000000000602082015250565b6000613eb1602b8361340d565b9150613ebc82613e55565b604082019050919050565b60006020820190508181036000830152613ee081613ea4565b9050919050565b7f546f6b656e20646f6573206e6f74206578697374000000000000000000000000600082015250565b6000613f1d60148361340d565b9150613f2882613ee7565b602082019050919050565b60006020820190508181036000830152613f4c81613f10565b9050919050565b7f4f6e6c79206f776e65722063616e20747261696e000000000000000000000000600082015250565b6000613f8960148361340d565b9150613f9482613f53565b602082019050919050565b60006020820190508181036000830152613fb881613f7c565b9050919050565b7f4e487b7100000000000000000000000000000000000000000000000000000000600052601160045260246000fd5b6000613ff9826134bd565b9150614004836134bd565b9250827fffffffffffffffffffffffffffffffffffffffffffffffffffffffffffffffff0382111561403957614038613fbf565b5b828201905092915050565b7f546f6b656e2063616e206f6e6c7920626520747261696e6564206f6e6365206560008201527f7665727920323420686f75727300000000000000000000000000000000000000602082015250565b60006140a0602d8361340d565b91506140ab82614044565b604082019050919050565b600060208201905081810360008301526140cf81614093565b9050919050565b7f596f752068617665206e6f7420747261696e656420666f72203330206461797360008201527f2c20796f75206e65656420746f206769766520757020616e642073746172742060208201527f6f76657200000000000000000000000000000000000000000000000000000000604082015250565b600061415860448361340d565b9150614163826140d6565b606082019050919050565b600060208201905081810360008301526141878161414b565b9050919050565b600081905092915050565b7f7b00000000000000000000000000000000000000000000000000000000000000600082015250565b60006141cf60018361418e565b91506141da82614199565b600182019050919050565b7f226e616d65223a202241746f6d69632048616269742023000000000000000000600082015250565b600061421b60178361418e565b9150614226826141e5565b601782019050919050565b600061423c82613402565b614246818561418e565b935061425681856020860161341e565b80840191505092915050565b7f222c000000000000000000000000000000000000000000000000000000000000600082015250565b600061429860028361418e565b91506142a382614262565b600282019050919050565b7f226465736372697074696f6e223a20224275696c6420796f75722061746f6d6960008201527f63206861626974206f6e20636861696e222c0000000000000000000000000000602082015250565b600061430a60328361418e565b9150614315826142ae565b603282019050919050565b7f22696d616765223a202200000000000000000000000000000000000000000000600082015250565b6000614356600a8361418e565b915061436182614320565b600a82019050919050565b7f2200000000000000000000000000000000000000000000000000000000000000600082015250565b60006143a260018361418e565b91506143ad8261436c565b600182019050919050565b7f7d00000000000000000000000000000000000000000000000000000000000000600082015250565b60006143ee60018361418e565b91506143f9826143b8565b600182019050919050565b600061440f826141c2565b915061441a8261420e565b91506144268285614231565b91506144318261428b565b915061443c826142fd565b915061444782614349565b91506144538284614231565b915061445e82614395565b9150614469826143e1565b91508190509392505050565b7f646174613a6170706c69636174696f6e2f6a736f6e3b6261736536342c000000600082015250565b60006144ab601d8361418e565b91506144b682614475565b601d82019050919050565b60006144cc8261449e565b91506144d88284614231565b915081905092915050565b7f476f616c2063616e6e6f7420626520656d707479000000000000000000000000600082015250565b600061451960148361340d565b9150614524826144e3565b602082019050919050565b600060208201905081810360008301526145488161450c565b9050919050565b7f476f616c2063616e6e6f74206265206c6f6e676572207468616e203238300000600082015250565b6000614585601e8361340d565b91506145908261454f565b602082019050919050565b600060208201905081810360008301526145b481614578565b9050919050565b7f455243373231456e756d657261626c653a20676c6f62616c20696e646578206f60008201527f7574206f6620626f756e64730000000000000000000000000000000000000000602082015250565b6000614617602c8361340d565b9150614622826145bb565b604082019050919050565b600060208201905081810360008301526146468161460a565b9050919050565b7f4e487b7100000000000000000000000000000000000000000000000000000000600052603260045260246000fd5b7f4552433732313a20696e76616c696420746f6b656e2049440000000000000000600082015250565b60006146b260188361340d565b91506146bd8261467c565b602082019050919050565b600060208201905081810360008301526146e1816146a5565b9050919050565b7f3c73766720786d6c6e733d22687474703a2f2f7777772e77332e6f72672f323060008201527f30302f737667222076657273696f6e3d22312e312220786d6c6e733a786c696e60208201527f6b3d22687474703a2f2f7777772e77332e6f72672f313939392f786c696e6b2260408201527f20786d6c6e733a7376676a733d22687474703a2f2f7376676a732e6465762f7360608201527f76676a73222076696577426f783d22302030203335302033353022207769647460808201527f683d2233353022206865696768743d22333530223e3c7374796c653e70207b6660a08201527f6f6e742d66616d696c793a2048656c7665746963617d3c2f7374796c653e3c6460c08201527f6566733e3c6c696e6561724772616469656e74206772616469656e745472616e60e08201527f73666f726d3d22726f74617465283135302c20302e352c20302e3529222078316101008201527f3d22353025222079313d223025222078323d22353025222079323d22313030256101208201527f222069643d226772616469656e74223e3c73746f702073746f702d636f6c6f726101408201527f3d2268736c28000000000000000000000000000000000000000000000000000061016082015250565b60006148c56101668361418e565b91506148d0826146e8565b61016682019050919050565b7f2c20313030252c2037352529222073746f702d6f7061636974793d223122206f60008201527f66667365743d223025223e3c2f73746f703e0000000000000000000000000000602082015250565b600061493860328361418e565b9150614943826148dc565b603282019050919050565b7f3c73746f702073746f702d636f6c6f723d2268736c2800000000000000000000600082015250565b600061498460168361418e565b915061498f8261494e565b601682019050919050565b7f2c20313030252c2036302529222073746f702d6f7061636974793d223122206f60008201527f66667365743d2231303025223e3c2f73746f703e3c2f6c696e6561724772616460208201527f69656e743e000000000000000000000000000000000000000000000000000000604082015250565b6000614a1c60458361418e565b9150614a278261499a565b604582019050919050565b7f3c66696c7465722069643d2266696c7465722220783d222d3230252220793d2260008201527f2d323025222077696474683d223134302522206865696768743d22313430252260208201527f2066696c746572556e6974733d226f626a656374426f756e64696e67426f782260408201527f207072696d6974697665556e6974733d227573657253706163654f6e5573652260608201527f20636f6c6f722d696e746572706f6c6174696f6e2d66696c746572733d22735260808201527f4742223e3c666554757262756c656e636520747970653d226672616374616c4e60a08201527f6f6973652220626173654672657175656e63793d22302e30303520302e30303360c08201527f22206e756d4f6374617665733d22312220736565643d2232333622207374697460e08201527f636854696c65733d227374697463682220783d2230252220793d2230252220776101008201527f696474683d223130302522206865696768743d22313030252220726573756c746101208201527f3d2274757262756c656e6365223e3c2f666554757262756c656e63653e3c66656101408201527f476175737369616e426c757220737464446576696174696f6e3d2232302030226101608201527f20783d2230252220793d223025222077696474683d22313030252220686569676101808201527f68743d22313030252220696e3d2274757262756c656e63652220656467654d6f6101a08201527f64653d226475706c69636174652220726573756c743d22626c7572223e3c2f666101c08201527f65476175737369616e426c75723e3c6665426c656e64206d6f64653d22636f6c6101e08201527f6f722d646f6467652220783d2230252220793d223025222077696474683d22316102008201527f30302522206865696768743d22313030252220696e3d22536f757263654772616102208201527f706869632220696e323d22626c75722220726573756c743d22626c656e64223e6102408201527f3c2f6665426c656e643e3c2f66696c7465723e3c2f646566733e00000000000061026082015250565b6000614d4761027a8361418e565b9150614d5282614a32565b61027a82019050919050565b7f3c726563742077696474683d2233353022206865696768743d2233353022206660008201527f696c6c3d2275726c28236772616469656e7429222066696c7465723d2275726c60208201527f282366696c74657229223e3c2f726563743e0000000000000000000000000000604082015250565b6000614de060528361418e565b9150614deb82614d5e565b605282019050919050565b7f3c7465787420783d223530252220793d223430252220636c6173733d2262617360008201527f652220646f6d696e616e742d626173656c696e653d226d6964646c652220746560208201527f78742d616e63686f723d226d6964646c652220666f6e742d66616d696c793d2260408201527f48656c7665746963612220666f6e742d73697a653d22312e35656d2220666f6e60608201527f742d7765696768743d22626f6c64223e00000000000000000000000000000000608082015250565b6000614ec460908361418e565b9150614ecf82614df6565b609082019050919050565b7f41746f6d69632033387800000000000000000000000000000000000000000000600082015250565b6000614f10600a8361418e565b9150614f1b82614eda565b600a82019050919050565b7f3c2f746578743e00000000000000000000000000000000000000000000000000600082015250565b6000614f5c60078361418e565b9150614f6782614f26565b600782019050919050565b7f3c7465787420783d223530252220793d223530252220636c6173733d2262617360008201527f652220646f6d696e616e742d626173656c696e653d226d6964646c652220746560208201527f78742d616e63686f723d226d6964646c652220666f6e742d66616d696c793d2260408201527f48656c766574696361223e000000000000000000000000000000000000000000606082015250565b600061501a606b8361418e565b915061502582614f72565b606b82019050919050565b7f4461793a20000000000000000000000000000000000000000000000000000000600082015250565b600061506660058361418e565b915061507182615030565b600582019050919050565b7f3c666f726569676e4f626a65637420783d2232302220793d223138302220776960008201527f6474683d2233313022206865696768743d22323030223e3c7020786d6c6e733d60208201527f22687474703a2f2f7777772e77332e6f72672f313939392f7868746d6c223e00604082015250565b60006150fe605f8361418e565b91506151098261507c565b605f82019050919050565b7f3c2f703e3c2f666f726569676e4f626a6563743e3c2f7376673e000000000000600082015250565b600061514a601a8361418e565b915061515582615114565b601a82019050919050565b600061516b826148b7565b91506151778287614231565b91506151828261492b565b915061518d82614977565b91506151998286614231565b91506151a482614a0f565b91506151af82614d39565b91506151ba82614dd3565b91506151c582614eb7565b91506151d082614f03565b91506151db82614f4f565b91506151e68261500d565b91506151f182615059565b91506151fd8285614231565b915061520882614f4f565b9150615213826150f1565b915061521f8284614231565b915061522a8261513d565b915081905095945050505050565b7f646174613a696d6167652f7376672b786d6c3b6261736536342c000000000000600082015250565b600061526e601a8361418e565b915061527982615238565b601a82019050919050565b600061528f82615261565b915061529b8284614231565b915081905092915050565b7f4552433732313a2061646472657373207a65726f206973206e6f74206120766160008201527f6c6964206f776e65720000000000000000000000000000000000000000000000602082015250565b600061530260298361340d565b915061530d826152a6565b604082019050919050565b60006020820190508181036000830152615331816152f5565b9050919050565b7f4552433732313a207472616e736665722066726f6d20696e636f72726563742060008201527f6f776e6572000000000000000000000000000000000000000000000000000000602082015250565b600061539460258361340d565b915061539f82615338565b604082019050919050565b600060208201905081810360008301526153c381615387565b9050919050565b7f4552433732313a207472616e7366657220746f20746865207a65726f2061646460008201527f7265737300000000000000000000000000000000000000000000000000000000602082015250565b600061542660248361340d565b9150615431826153ca565b604082019050919050565b6000602082019050818103600083015261545581615419565b9050919050565b7f45524337323155524953746f726167653a2055524920736574206f66206e6f6e60008201527f6578697374656e7420746f6b656e000000000000000000000000000000000000602082015250565b60006154b8602e8361340d565b91506154c38261545c565b604082019050919050565b600060208201905081810360008301526154e7816154ab565b9050919050565b7f4e487b7100000000000000000000000000000000000000000000000000000000600052601260045260246000fd5b6000615528826134bd565b9150615533836134bd565b925082615543576155426154ee565b5b828204905092915050565b6000615559826134bd565b9150615564836134bd565b9250817fffffffffffffffffffffffffffffffffffffffffffffffffffffffffffffffff048311821515161561559d5761559c613fbf565b5b828202905092915050565b6000819050919050565b6155c36155be826134bd565b6155a8565b82525050565b60008160601b9050919050565b60006155e1826155c9565b9050919050565b60006155f3826155d6565b9050919050565b61560b61560682613540565b6155e8565b82525050565b600061561d82856155b2565b60208201915061562d82846155fa565b6014820191508190509392505050565b6000615648826134bd565b9150615653836134bd565b925082615663576156626154ee565b5b828206905092915050565b7f4552433732313a20617070726f766520746f2063616c6c657200000000000000600082015250565b60006156a460198361340d565b91506156af8261566e565b602082019050919050565b600060208201905081810360008301526156d381615697565b9050919050565b7f4552433732313a207472616e7366657220746f206e6f6e20455243373231526560008201527f63656976657220696d706c656d656e7465720000000000000000000000000000602082015250565b600061573660328361340d565b9150615741826156da565b604082019050919050565b6000602082019050818103600083015261576581615729565b9050919050565b60006157788285614231565b91506157848284614231565b91508190509392505050565b600081519050919050565b600082825260208201905092915050565b60006157b782615790565b6157c1818561579b565b93506157d181856020860161341e565b6157da81613451565b840191505092915050565b60006080820190506157fa6000830187613552565b6158076020830186613552565b61581460408301856135e8565b818103606083015261582681846157ac565b905095945050505050565b60008151905061584081613373565b92915050565b60006020828403121561585c5761585b61333d565b5b600061586a84828501615831565b91505092915050565b7f455243373231456e756d657261626c653a20636f6e736563757469766520747260008201527f616e7366657273206e6f7420737570706f727465640000000000000000000000602082015250565b60006158cf60358361340d565b91506158da82615873565b604082019050919050565b600060208201905081810360008301526158fe816158c2565b9050919050565b7f4552433732313a206d696e7420746f20746865207a65726f2061646472657373600082015250565b600061593b60208361340d565b915061594682615905565b602082019050919050565b6000602082019050818103600083015261596a8161592e565b9050919050565b7f4552433732313a20746f6b656e20616c7265616479206d696e74656400000000600082015250565b60006159a7601c8361340d565b91506159b282615971565b602082019050919050565b600060208201905081810360008301526159d68161599a565b9050919050565b60006159e8826134bd565b91506159f3836134bd565b925082821015615a0657615a05613fbf565b5b828203905092915050565b7f4e487b7100000000000000000000000000000000000000000000000000000000600052603160045260246000fdfe4142434445464748494a4b4c4d4e4f505152535455565758595a6162636465666768696a6b6c6d6e6f707172737475767778797a303132333435363738392b2fa2646970667358221220429a45c4092c85cd706069feb17c43d28f1162c575eea64aff6cd3914da22ab564736f6c63430008090033",
  "linkReferences": {},
  "deployedLinkReferences": {}
}